:020000040000FA
:400000000080002011000000C9020000C902000008B5054B1A6803F53F5302331A6000F047FA00F059F900BFFA46004010B5054C237833B9044B13B10448AFF300800123BD
:40004000237010BD5081FF1F0000000070250000084B10B51BB108490848AFF300800848036803B910BD074B002BFBD0BDE81040184700BF000000005481FF1F70250000CE
:40008000C880FF1F0000000010B562B600F0B0FE10B1002000F070FF1C4B1B681868002320B110F8012D1344DBB2F9E7184A12681278D31A03F0FF039A4201D000F05CFF87
:4000C00000F0EEFDF0B90446012000F05FFF00F0E7FD18B90134652CF6D101E0642C11D101210C4800F05FF900210B4800F05BF900210A4800F057F9094B00221A70094BC1
:4001000040221A7000F06CFDFEE700BFD080FF1FD480FF1FD0FF0300D0FE0300D0FD0300CC80FF1FFA460040F8B572B6574B61221A704FF6FF12A3F5F0631A8018229A70F6
:4001400040F2E7329A801F229A71062283F88022522203F5C0731A704D4B4E4A1B784E4EDBB2137040F618024C4B19251A8041F25122002423F8022C33784FF4F07003F0DE
:40018000010343EA440401F07FF8013D04F003041CD0032CF0D1424B4FF480721A8007221A70404A002448211470917002221C705C7103F8032C3C4A3C4D1378062643F0FE
:4001C00003031370314B01221A7000E0FEE706FB045300219A881868013402F0BCF9082CF5D100221146324C04F1400554F8210005EB420320F0FF06C0B2024405EB4200C5
:40020000013303300233984206D013F8037C13F802EC07F806E0F5E701311029E6D1254A254C137843F002031370137C43F002031374224BA2F57E4259681868133A03C281
:40024000198953F80A0F11805968E83A03C21B89A2F6F652A2F8F63D137843F008031370174B02F5AA521B780C32DBB203F007011B0911705370134B44221A70A3F5A653AD
:40028000163B0FCB07C42380F8BD00BF004800400F010049A146004025420040224200400440004006400040A243004074250000A425000003500140B04300402C26000034
:4002C000CF0100497658004008B502F00DF903680C2B00D1FEE7FEE780B51148114B0025C0B1A3F1100192C922460439161BB74204D051F8046F42F8046BF7E7114653F8DD
:40030000046C8C1AA64202D041F8045BF9E701381033E5E702F0EEF8FFF7B6FEFEE700BF0100000040280000104A114B10B41A60104A114C1368114843F4007313600023DF
:40034000032B98BF54F823204FEA830188BF0C4A0133302B4250F3D10A4B1A780A4B1A700A4B064A10BC1A60FFF7DEBE0004FA050CED00E014ED00E0000000000080FF1F8C
:40038000C9020000BC760040C080FF1F08ED00E000470023014422B1013A885C0344DBB2F9E71846704770B5C0B06A4620F0FF035C1E03F1FF05D31A14F8016FAC421E55D0
:4003C000FAD1C3B2D45C8C4208D0D154C0F30721C0F3074000F0A0FD00F0F6FD40B070BD01380B284FD8DFE800F0060C12181E24302A363C42480902C1F57F3101F57071FA
:4004000047E00902C1F57F3101F2C13144E00902C1F57F3101F2C53136E00902C1F57F3101F2C93138E00902C1F57F3101F574712FE00902C1F57F3101F2D13129E0090260
:40044000C1F57F3101F2D6311EE00902C1F57F3101F2D23118E00902C1F57F3101F5757112E00902C1F57F3101F5767114E00902C1F57F3101F577710BE00902C1F57F3193
:4004800001F5787108E000210B78487843EA002070470878C0B270470B784A788878000440EA02201843CB7840EA03607047000038B51A4B1A781D4602F0C002802A2BD14C
:4004C000174B1C78E4B2012C15D900210520FFF787FF012104460520FFF782FF14F0FF0FC0B204D000280CBF0024032403E0002814BF0124022400232B7021460220FFF78F
:400500006FFF48B1012C07D821460220FFF768FFBDE83840FFF73CBF38BD00BFFA460040CC80FF1FF8B5014604460320FFF758FF214605460420FFF753FF012C064601D997
:400540000620F8BD21460620FFF74AFF012840D0214603200135FFF743FF06EB052600252F4601300002864209D910F8013B5A1ED2B2FD2A1D4498BF0127EDB2F3E72146E9
:400580000320FFF72DFF144B01309E424FEA00204FEAD00014BFF6084FF40046B04206D200F190431B7801301D44EDB2F6E721460120FFF715FF6D42EDB28542C0D1002F34
:4005C000BED02002C0F57F30012100F2D130FFF7EAFE0020F8BD00BFC0FF03002DE98048ADF5637D00F064FB62B600252E462F46DFF82484FF2301AA4FF496714CA800F04F
:4006000087FB0028F6D1BDF80420062A40F237829DF83031012B40F03282BDF83241E31D934200F22A82B3F5967F00F226824CAB23449B79172B40F02282231D9BB20DF249
:400640002F122BB1D15C013B084480B29BB2F8E74CAB1A1951791379404243EA012380B2834240F00E829DF831319DF83491A3F13102142A00F27981DFE812F040008B006A
:40068000B000C4000001050128013A01C4004A016A011500770177017701770177017701770177015100002E00F0E981012C40F0E681B9F1010F00F2A0814846FFF732FFED
:4006C0000446002840F099814FEA0929C9F57F390DF59A7E09F57079B9E80F00AEE80F00B9E80F00AEE80F00B9E80F00AEE80F0099E803008EE80300382191E1002E00F077
:40070000BE81002C40F0BB81BE4B1878FFF70AFFB0FA80F040098DF83401314680E1002E00F0AD81032C04D040F223139C4240F0A681032CBDF835A105D0E21E0DF2371193
:4007400097A801F0FDFEA9F140033F2B07D80AF1806303F500631A011021802309E0B9F1030F00F22C810AEB09234FF480711A020B469A4580F02581002097AB145C10F82B
:4007800003E0A64540F03381013084B2A142F5D819E1002E00F07381012C40F07081B9F1030F00F26C81974B5B681B68C3F30742914502D1C3F3072303E08CBF00234FF437
:4007C00080738DF834311B0A8DF835310024FF238DF836318DF83741042121E1002E00F04E81012C40F04B814846FFF79BFE49468DF834010520FFF7F3FD00248DF8350150
:4008000002210DE1342B12D1002E00F03881032C40F03581A9F140033F2B8CBF4FF4907510252A46002197A801F095FE05E0002E00F02581022C40F2228197AB033C224681
:4008400058190DF2371101F07BFEA9F140032C443F2BA4B204D800F067FB8023102203E04FF480734FF49072944240F0C280BDF835519D42C0F00C810126A2E0002E00F082
:40088000FE800025B6E6002E00F0F980012C40F0F6804846FFF746FE0446002840F0AD80B9F1010F0ED800F0A3FA10B1204600F063FB89F001015448FFF775FD49465348AD
:4008C000FFF771FD4F4B83F80090DEE0002E00F0D68004EB0509B9F5967F00F3CE8097AB581922464DA901F02BFE1FFA89F5CCE0002C40F0C480464A04AB92E803004DAAFB
:4009000083E8030082E8030025460126082187E0002E00F0B480032C40F0B180A9F140033F2BBDF835B108D800F0FEFABBF17F0F4FEA0B1140F2168143E04FEA092A0AEB52
:400940000B01BBF1FF0F4FEA012140F2168138E02C4B1878FFF7E6FD10B9802388F8003000F0B2F900F00AFB89E02A4A1268002A45D0002E52D0ADF80A404FF000094DACD3
:4009800004A98DF808300394CDF81090CDF81490069402A89047BDF81410B1F5937F02D3069BA34205D0069B03B929B99DF8104036E00E24494633E00E24194630E00924B0
:4009C0002DE00A242BE0B9F1030F5ED8A9425CD209F510390B440AEB092A03F12002C3EB4A1A1AF8030013F8011B88424BD0022415E0002501260324B2E00C240FE0052437
:400A000011460DE0CC80FF1FD0FF0300D0FE0300402600006C81FF1FFA4600400524002101238DF830310A1D0B0A8DF83331ADF806108DF831418DF8321192B200230DF21B
:400A40002F102AB1845C013A23449BB292B2F8E75B424DAA9BB253540DF235121B0A53540DF59B7317225A54073196230DF1060289B24CA800F02DF9BCE50324CFE70424F7
:400A8000CDE70824CBE79A42ABD100242146C7E7B9F13F0F4ED8DFF840A105EB092BDAF804301FFA8BFB1A68C2F30F2312F0FF0F1CBF01339BB29B454BD39AF80030012BB3
:400AC00015D9002F36D139464FF4907204A801F042FD9AF800104FF4907304AA00290CBFFE21FF21032000F0B1F9012722E03A4B1E78F6B2012E30D831460320FFF770FC8C
:400B000080B2421C92B2C2F57F730233C6F102019BB2C9B293FBF1F39345184480B201D383451AD9B9F1030FCBD1C6F1FF06B542C7D112E02346294697AA484600F086F96F
:400B400000280CBF00240A24002500F03DFA012606E0002501260A2402E0002501260D2429465DE710221D48FFF713FC044664428DF834410121002452E74FF480720020F1
:400B8000FFF707FCB9F13F0F0446F0D80AF1107ADA444FEA4A1A002313F80A0001330444202BE4B2F8D1B9F1030FE0D1ABF1FE03012BDCD8BBF1FF0B18BF4FF0010B594633
:400BC0000520FFF70DFC201AC4B259460620FFF707FC201AC4B2CAE7CC80FF1F008000402DE9F04100F004F910B1002000F0C4F90020FFF797FC06460120FFF793FC264C09
:400C000002230746002105202370FFF7E9FB012807D116B92670354604E017B920703D4600E006252378DFF87080022B0ED101210520FFF7D5FB012808D11FB988F8000007
:400C40003D4603E016B9354688F80060636800211A680846FFF79DFBA3681B78181A00F0FF00834203D10C4B5B681B6813B9002000F082F9094B1A7802F0C002402A1A46EA
:400C800000D01DB100231370FFF7A8FC80221A70BDE8F04100F072B9CC80FF1FFA460040024B1878C0F38000704700BF1151004008B562B60221002000F0DEFB014B0122D7
:400CC0001A7008BD7081FF1F00F014BC012000F0D5BC70B503EB83030E4615460146402202205C0000F08CFC022000F06DFC30B92CB10120013C00F049F9A4B2F4E7022029
:400D000000F062FC10B12E80002070BD102070BD2DE9F84303EB83035C00224B17461A78804689461E46A2B1254600F03BFC30B92DB10120013D00F029F9ADB2F5E700F08E
:400D400031FCA0B100F034FCFFF7C0FF002333700DE000F02DFC50B100F024FC38B1FFF7B5FF04E054B100F011F9013CA4B2012000F02AFC01284FF00100F3D100F024FCC6
:400D800001280AD14A46402A28BF4022414600F089FC38800020BDE8F88300233B801020BDE8F8837081FF1F38B500F07FF900F01DFAC0B900F054FA0728044610D10B4DF6
:400DC0002A780A4B910703D4012000F0F5F8F7E71A78920704D51B789B0814BF0724002400F024FA00E00424204638BD2247004070B5FFF7D9FF044610BB00F057F900F003
:400E0000F5F9E0B9012000F0D7F907280AD10D4D02210D4800F05CF902280A4E05D02B789B07F5D54FF0FF3406E033789A0703D4012000F0C1F8F8E700F0F8F900E00424B6
:400E4000204670BD224700407F81FF1F41282DE9F04105460E46174698460AD8441F3A2C8CBF002401243F2804D8B1F5807F30D806E00124812E28BF0124B8F1100F28D1D8
:400E80003FB334BB00F0B2F928BB43463A463146284600F03BF9072834D1DFF8748098F800201B4B12F0020F1F4603D1012000F083F8F4E71A78900706D51B789B080CD0E3
:400EC00002E01A78920719D44FF0FF3400F0AEF91AE0012418E0042416E00E4A314653782846127800F048F907280BD13A78084B9107E6D4012000F05FF8F7E71B789B0819
:400F0000E4D0E1E70446E1E72046BDE8F08100BF224700407F81FF1F3F288CBF10234FF48073FFF793BF000008B500F0B5F90F4A137843F008031370137C43F0080313746A
:400F40000B4BC8221A700B4A137843F010031370137C43F01003137402F5557213789B06FCD5BDE8084000F09BB900BFA043004001470040AC43004001BE7047024A1378D0
:400F800043F0010313707047F646004038B50446084DB4F5004F05D9286800F075F9A4F50044F6E7034B58686043BDE8384000F06BB900BFD880FF1F024B1B7A584300F0B6
:400FC00063B900BFD880FF1F08B500F065F900BF00BF00BF00BF00BF00BF00BF00BF00BF00BF00BF00BF00BF00BF00BF00BF064A13889BB243F0040313801388BFF36F8F55
:40100000BDE8084000F04CB900480040054A00F01F00126800F1100352F8230042F82310704700BF08ED00E000F01F0000F16040490100F56440C9B201707047134B144A63
:401040001B78DBB20360127843EA0223114A0360127843EA0243104A0360127843EA026303600E4B0E4A1B78DBB24360127843EA02230C4A4360127843EA02430A4A4360DF
:40108000127843EA02634360704700BF0301004904010049EC460040020100490101004900010049050100490601004908B500F0F3F8064A137843F008031370137C43F078
:4010C00008031374BDE8084000F0EAB8A04300402DE9F0410E464B1E0A4FDFF82C80451EC418A5420BD03B78DB0703D40120FFF763FFF8E798F8003005F8013FF1E73046CC
:40110000BDE8F081224700402047004070B5184D2C78A60727D5174CB6262670D5262670022626702D78AD071FD416462070B51AADB2AB4203D916F8015B2570F7E7B3F59A
:40114000807F01D0072070BD3F28FBD800F5103001EB0021490100235A5C0133D2B2202B2270F9D1EEE7042070BD092070BD00BF224700402047004070B50D4D2C78A607F2
:4011800012D50C4CB6262670D8262670052626702D78AD070AD42070080AC9B22070217022702370072070BD042070BD092070BD22470040204700400A4A137899070CD5E4
:4011C000094BB6211970E12119700E2119701278920704D4187007207047042070470920704700BF224700402047004038B500F053F80C4A147874B901250B4915700B6824
:401200002B400AD00B6823F001030B6000BF00BF00BF556002E0042400E01C4600F040F8204638BD7481FF1F0400084010B500F033F8094B00215A681970012A08D1074C5D
:40124000226842F00102226000BF00BF00BF5960BDE8104000F024B87481FF1F04000840074B1B789B0708D5064BB6221A70E0221A700D221A70072070470420704700BF43
:4012800022470040204700400230800803D000BF01380046FCD17047EFF3108072B6704780F31088704700BFF8B5FFF7F5FF3C4A01251378022743F001031370137C394CF8
:4012C00043F001031374384B02F5E3521D700B3203F8947C1378064603F07F0313700020FFF76AFE2378314A03F0F90323701378284603F0DF03137023782B432370FFF7E4
:401300005BFE2820FFF758FE294B38461A7802F07F021A701A7802F0BF021A7023783B432370FFF749FE2378304643F004032370204B00241C705C70FFF7B2FF07211720BC
:40134000FFF772FE1C491720FFF760FE07211820FFF76AFE19491820FFF758FE07211520FFF762FE16491520FFF750FE20460721FFF75AFE13492046FFF748FE2846072178
:40138000FFF752FE10492846FFF740FE07210C20FFF74AFEBDE8F8400C490C20FFF736BEA5430040944300409D60004012600040F8510040846000405B1B0000BD190000EB
:4013C000591B0000FD1A0000291B0000551D000008B51C4B01221A701B4B18701B48002303701B4803701B4803701B4803701B4803701B4803701B4803701B4B4FF4000047
:4014000018604FF0807018604FF4001018601A6002221A60154B19B91A7802F0FE0202E01A7842F001021A70114B03221A70802203F8202C0120FFF727FF0E4B04221A7087
:4014400008BD00BF1482FF1F9481FF1F9A81FF1F9881FF1F9981FF1F9581FF1F8481FF1F9781FF1F0C82FF1F00E100E009600040286000401260004070B5074C05462378DE
:401480000E461BB9FFF710FF0123237031462846BDE87040FFF79CBF7C81FF1F0C4B01221A700C4A002313700B4A13700B4A13700B4A13700B4A13700B4A13700B4A137092
:4014C0000B4B03221A70802203F8202C704700BF1482FF1F9A81FF1F9881FF1F9981FF1F9581FF1F8481FF1F9781FF1F0C82FF1F2860004008B5FFF7CFFE204A137803F0C3
:401500007F031370937A03F0FB039372A2F5E352033A137803F0FE031370137C03F0FE031374174B1A7842F080021A701A7842F040021A70FFF7B4FE124B4FF400021A6008
:401540004FF080721A604FF400121A6001221A6002221A6000F09AFF0B4B4FF480521A600A4A002313700A4A13700A4A13700A4A13700A4A13700A4A137008BD08600040AE
:40158000F851004080E100E080E200E09881FF1F9981FF1F9581FF1F8481FF1F9781FF1F7C81FF1F014B1878704700BF9981FF1F044B1A7802F0FF001AB118780022C0B2BD
:4015C0001A7070479881FF1F024A0C2303FB002040787047A081FF1F431E072B0CD8074A064B00010344805C5B7800F00F0043EA0020023880B2704700207047FC5F00403B
:40160000431E072BF0B531D8194B0C2505FB0035EC88184FA4B2C4F50074A2424FF00C0404FB003488BFEA88E67884BFC2F5007292B2104C46EA12260501EE552C44D6B20F
:40164000667041B90C2202FB0030002343704379DBB2A370F0BD0E46074F2F44751AADB2AA42EFD916F8015B3D72F7E7F0BD00BFA081FF1FFC5F004070600040431E072BC1
:401680000AD8064A0C2303FB002300225A705A79034BD2B200011A54704700BFA081FF1FFE5F004038B505461446D1B1431E072B19D8FFF791FFA04203D22846FFF78CFF92
:4016C00004460A4609482B011844531A9BB29C4203D9037A02F8013BF7E72846FFF7CEFF02E00C4600E00024204638BD7060004030B51A4A1A491B4D0878138803449BB2DB
:401700001380194A00231488D8B2A4B27CB1082B0CD050680078C0B2E85450680133013050601088013880B21080ECE718460B780E4C082B0E4A00D040B10E4D2B7883F0CF
:4017400080032B700F232370022301E0022323701370094B1870087030BD00BF1082FF1F0C82FF1F006000408881FF1F8581FF1F9A81FF1F9681FF1F0D82FF1F074B02226D
:401780001A70074B80221A70064B0F221A70064A00231370054A0120137070479A81FF1F9681FF1F8581FF1F0C82FF1F0D82FF1F30B5164B16491B780A8803F00F03023B7E
:4017C000DBB21A4492B20A80124C134A0020118889B279B173B15568215C013BC9B229705168DBB20131516011880130013989B21180ECE7094A1370094A137883F0800333
:401800001370084B0B221A7030BD00BF296000401082FF1F006000408881FF1F0D82FF1F9681FF1F8581FF1F064A06231370064A01201370054B80221A70054B00221A70C1
:40184000704700BF9A81FF1F8581FF1F9681FF1F0D82FF1F054B9A683AB19A68044910709A680988518000229A6070478881FF1F1082FF1F08B5124B1A78D2B21A701B784C
:40188000DBB21A0602D50F4A137008BD0220FFF7E1FF0D4B1B7803F06003202B05D0402B06D043B900F0B6FC04E000F0F7FD01E000F0E2FD10B9034B03221A7008BD00BF09
:4018C000286000408581FF1F0060004008B5084A084B0120197813880B449BB21380064B00221A70FFF7B6FF044B03221A7008BD1082FF1F0C82FF1F9A81FF1F8581FF1F5A
:4019000008B50C4B1B78DBB2042B07D0062B09D0022B0DD1BDE80840FFF7D8BFBDE80840FFF746BF0320FFF795FF034B03221A7008BD00BF9A81FF1F8581FF1F08B5054B5E
:40194000002201201A70FFF785FF034B03221A7008BD00BF9A81FF1F8581FF1F08B50A4B1A7832B11A78094942F080020A7000221A70074B002201201A70FFF76BFF054B2E
:4019800003221A7008BD00BF8481FF1F086000409A81FF1F8581FF1F074B1B78DBB2042B05D0062B05D0022B05D1FFF7A1BEFFF7C5BFFFF7D3BF70479A81FF1F38B51D4CB0
:4019C0002378DBB2DD0634D518060AD503F00F03012B2ED1FFF74EFF174B1B78190609D538BD5A0602D5FFF7D7FF03E09D0620D5FFF786FF23781B061BD4104B1A78104B90
:401A00001B7813430F4A13701278934211D10A4A0849154613782078DBB2000605D41378DBB20B700B7803F00F0328788342F1D138BD38BD286000408581FF1F9681FF1FC4
:401A40000D82FF1F29600040054A00231380054A916819B191680B7092685380704700BF1082FF1F8881FF1F0E4808B503889BB213B9FFF783FE13E00B4B02221A700B4BD0
:401A800000221A70FFF7E0FF094AD1799379028843EA012392B2934238BF0380FFF728FE012008BD8881FF1F9A81FF1F9681FF1F0060004008B50C4B04221A700B4B80229B
:401AC0001A70FFF7C1FF0A4A0120D179937943EA012308490A8892B2934238BF0B80064B0B221A7008BD00BF9A81FF1F9681FF1F006000408881FF1F8581FF1F084B0122B1
:401B00001A700F3B9B7C074B1A7B02F00302012A1EBFDA7B82F08002DA7301225A7370470B600040A081FF1F094B02221A700F3B93F82230074B1A7E02F00302012A1EBF9B
:401B4000DA7E82F08002DA7601225A76704700BF0B600040A081FF1F7047FFF79FBC000008B50B4B18780138C0B200F06BF9094B09491B79DBB200EBC3004269CB5C02EB98
:401B8000C3035B68054A596A0B781380516008BD9981FF1F006000408681FF1F8881FF1F08B50D4B18780138C0B200F04BF90B4B0B491B79DBB200EBC3004269CB5C02EB1E
:401BC000C3035B68DB69597813F8022B42EA012204490A804B6008BD9981FF1F006000408681FF1F8881FF1F38B5174C00232380164B18780138C0B200F024F9144AD378ED
:401C00001179DBB2F1B913490978CDB2591E022918D8416903F1005301EBC5014968013B927801EBC30011F83330D2B2934209D30C2353434168CA185068CB5A606023807B
:401C40009368A36038BD00BF8881FF1F9981FF1F006000408681FF1F10B5394B1A791978D2B211F0800F194632D05B78013B052B63D8DFE803F0101826626203CB78212BD4
:401C800002D1FFF76DFF08E02D4BDB78222B54D1FFF786FF01E0FFF7A7FF2A4B1B889BB2002B4AD009E0002A47D18B78002B44D1244B01221A80244A5A60BDE81040FFF77B
:401CC000D3BE002A39D11F4B01221A801F4AF3E75978C9B20A290DD00B2922D009292CD1FFF782FF174B1B889BB233B3BDE81040FFF7E0BE0ABB9A7802F0FF01EAB9DB780D
:401D0000114ADBB21370124B14781878844201D219700EE0197801290BD91278D2B21A7007E052B99A78012A07D89B78074ADBB21370BDE81040FFF777BD002010BD00BF2B
:401D4000006000408881FF1F1282FF1F1482FF1F1382FF1F00F09ABB70B50446184B88B003AA03F11006154618685968083303C5B3422A46F7D11B782B70FCB122232370FE
:401D800001AD032328466370FFF758F9002220461146AB5C08AC04EB131414F8144C03F00F03847008AC234413F8143C0132082AC1700371417100F10400EAD108B070BDEB
:401DC000482600002DE9F0411A4D01222E460C2080274FF0080E184B00FB025C14012344187016499CF805802144B8F1000F07D09CF8044024064CBF887081F802E000E09C
:401E00008F7000FB0261CC880132E4B29C71CC88092AC4F30724DC71CC88E4B21C71C988C1F307215971D6D1054BFF221A70BDE8F08100BFA081FF1F70600040FC5F004096
:401E40000A600040064B074A1B7802EBC30253681A7C824286BF03EBC0035869002070479481FF1F5C2600002DE9F84F424B1A78002A7ED01878414D0138C0B2FFF7E2FFE5
:401E8000A8463F4AC3681478007ADFF800C1E4B203EBC0000C2600274FF0010E834268D01A78A24263D11CF80420597891425ED19A7893F8039002F07F0206FB02FA05EBB5
:401EC0000A01CF7093F802B009F0030981F804B093F803B005F80AB0B3F804A0A1F808A093F902A0BAF1000F0BDAB9F1010F0CBF4FF007094FF00D0981F8059081F801E046
:401F000009E0B9F1010F0CBF4FF005094FF0090981F805904F704FEA02191A4906FB0282494481F802E0B2F808A0CAF3072A81F800A0B2F808A05FFA8AFA81F801A0B2F858
:401F400006A011495FFA8AFA494481F806A0B2F80690C9F3072981F80790B2F806905FFA89F981F80490D288C2F307224A71083394E7BDE8F88F00BF9981FF1FA081FF1F69
:401F80009581FF1FFC5F0040706000408681FF1F08B5064B18780138C0B2FFF753FF20B143681B7900EBC300406908BD9981FF1F00212DE9F84F0B464C4E0C2707FB01F594
:401FC00001317219092973554FF000049370474DD3701381937253705371EFD118B1444B1C70444B1C70444B1A78002A7BD0187801240138C0B2FFF725FFA0464368DFF8B6
:40200000F0E0DB790C2713F0400F3C4B4FF0000C1A7814BF42F0010202F0FE021A70027AD20007FB0451C36803EB02094B4531D093F802A00AF07F06A64229D10E89B3F8E5
:4020400004B0B6B25E4538BFA1F808B01E7893F801B01EF80660B3451AD181F804A0DE780E7093F902A0DE78BAF1000F06F0030607DA012E0CBF07260D264E7181F8018006
:4020800006E0012E0CBF052609264E7181F801C00833CBE70134092CC3D1C1680A328B1C0A440C200833934209D013F8081C13F80A4C01F07F0100FB01518C72F2E7FFF778
:4020C00067FF0F4B0122186000230C2000FB0251CB80098901320B44092A9BB2F6D1BDE8F84FFFF76FBEBDE8F88F00BFA081FF1F8681FF1F0E82FF1F9981FF1F9781FF1FC8
:402100009C81FF1F114B1B7903F07F035A1E072A19D80F490C2202FB031291781B0141F0010191700021D170517841F002015170127912F0800F074A1A4414BF8D2389235A
:402140009370FFF771BB0020704700BF00600040A081FF1FFC5F004030B4194B1A7902F07F02531E072B27D8164B0C2404FB02339978154D01F0FE0199700021D970294630
:402180001201505D114400F07F0050555A7802F0FD025A701A795B78120605D5012B01D18C7006E00D2303E0012B0CBF082309238B7030BCFFF738BB002030BC704700BF7E
:4021C00000600040A081FF1FFC5F004010B50D4B0D4C21791878C9B20138C0B2FFF732FE43681B798B4201D2012909D8074A0848535CDBB24354A3780120DBB2535410BDDE
:40220000002010BD9981FF1F006000408681FF1F0E82FF1F38B5874A874C13780021DBB221801806517840F188800A2900F20081DFE811F05800FE00FE00FE00FE00FE00BF
:402240000B00FE007900FE007D00D3787949012B09D17A4B1A787A4B03EBC2035B685B686360122310E0CB78022B12D18878FFF7E9FD002800F0DC80436863606368DA78E3
:4022800063689B7843EA02232380BDE83840FFF7EBBBCB78032B21D16A4B00228878D5B2854203D3634A92783AB910E0187801320028F7D018780344F0E75E4A62499278DD
:4022C000097C914203D16148FFF746FD5F4B1A78002A00F0AD801A78228018E0BDE8384000F0DCB813F0030313D0022B40F0A0802380504B0C211B7903F07F02544B01FB09
:4023000002339A78534BD2B21A7000225A706360BBE702222280504A11784E4AC9B2117053706260B1E7012323804C4BEFE70123238013794A4A1344E9E701390A2977D8C1
:40234000DFE801F037764F76067676760A7620009378444ADBB25AE0937803F0FF0153B93E4B1A7891425FD019703F4B01201870FFF71EFE58E0481EC0B2FFF763FD002848
:40238000EED155E0FFF722FF002851D0294A374913791279DBB2D2B20A70354A3049D25CCB5C9A4240D0304B01221A70FFF75CFD3AE003F00303012B2BD009D3022B37D139
:4023C0001C4B9B78002B33D1BDE83840FFF7C4BE184B9B78012B2BD11F4A137803F0FD0315E003F00303012B13D008D3022B1FD1104B9B78E3B9BDE83840FFF783BE0D4B6F
:402400009B78012B14D1144A137843F0020313700AE0084B1A795AB998781B791549DBB2CA5C22EA0002CA54BDE83840FFF7FCB9002038BD006000408881FF1F9481FF1F39
:402440005C2600002A270000F62700005B82FF1FA081FF1F7D81FF1F9781FF1F9981FF1F8681FF1F8481FF1F9881FF1F9581FF1F0E82FF1F9B81FF1F034B00201A781206F5
:4024800048BF5B78704700BF00600040024B1878C0F38010704700BF8F4500400F4A137803F00303012B0AD0022B0DD113790C2103F07F020A4B01FB02339B7A00E0137960
:4024C000DBB2012B08D800E00023064A1268D35C032B01D1FFF7C0BB0020704700600040A081FF1F9C81FF1F014B1868704700BF4881FF1F0E4B70B51E460E4C0025E41A5D
:40250000A410A54204D056F8253098470135F8E700F07CF9084B094C1E46E41AA4100025A54204D056F8253098470135F8E770BD18280000182800001828000020280000C6
:4025400010B5431E0A44914204D011F8014B03F8014FF8E710BD03460244934202D003F8011BFAE770470000002900005C00000000000000005100401000205100405000E8
:40258000C0510040100000000140001000140140000800400140000A004C014000020050014020000145004003520040011501400117014001190140011B0140034001403A
:4025C000024101400242014002430140034701400848014001490140044C0140024D0140015101407E0208100C047C40EC10EE0AEE0AEC1033803640CC30A640A780A6408D
:40260000A780A640A78008080F40C20C210225403D80AE40AF80C860CE20EE50B5025C01AC08AF40D601B401EC08000A4000000000000000C000040000141000100000000A
:402640006970122E003C01013031323334353637383941424344454600000000010000006426000001000000F62700000000000000000000010000007C2600000100000014
:40268000CD270000020000009E26000001000000B0260000000000009C260000030000000103400003000000820340000300000001000000B826000000000000EC260000C4
:4026C00000000000E0260000000000000000000001000000F826000001000000DF270000410000007D82FF1FBE82FF1F410000001A82FF1F1682FF1F2C000600FF0901A165
:40270000010902A10019032943150026FF0075089540910219442A8400150026FF00750895408102C0C000000203040309042C03430079007000720065007300730020005A
:40274000530065006D00690063006F006E0064007500630074006F0072002A0343006F006E00660069006700750072006100740069006F006E00200030007800300030004D
:4027800030003100220349006E007400650072006600610063006500200030007800300030003000310026034B0069007400500072006F006700200042006F006F007400DC
:4027C0006C006F006100640065007200000902290001010280FA090400000203000003092111010001222C0007050103400001070582034000011201000200000008B40418
:4028000046F100010104800143000000F8B500BFF8BC08BC9E4670475100000029030000F8B500BFF8BC08BC9E4670472D00000040280000C880FF1F880000007801000020
:402840000000000002000000682500006C2500000000007D00FA0000400000000090D00300000000000000000000000000000000000000000000000000000000000000001E
:4028800008280000000000000000000000000000000000000000000000000000000000000000000000000000000000000000000000000000000000000000000000000000E8
:4028C000E880FF1F00000000000000000000000000000000000000000000000000000000000000000000000000000000000000000000000000000000000000000000000052
:402900000000000000000000000000000000000000000000000000000000000000000000000000000000000000000000000000000000000000000000000000000000000097
:402940000000000000000000000000000000000000000000000000000000000000000000000000000000000000000000000000000000000000000000000000000000000057
:402980000000000000000000000000000000000000000000000000000000000000000000000000000000000000000000000000000000000000000000000000000000000017
:4029C00000000000000000000000000000000000000000000000000000000000000000000000000000000000000000000000000000000000000000000000000000000000D7
:403200000080002011320000ADA60000ADA6000008B507F053FA00BF10B5054C237833B9044B13B10448AFF300800123237010BD2082FF1F0000000040F40000084B10B597
:403240001BB108490848AFF300800848036803B910BD074B002BFBD0BDE81040184700BF000000002482FF1F40F40000C880FF1F000000002DE9F04F85B062B60AF0E4FA48
:4032800002F02CF801F0C2FFA0B902200AF066FA02200AF07BFAC24A0220137803F0F103034313700AF06AF802200AF073F802200AF058F805F032FF05F086FE01F0A6FFF3
:4032C00008B105F09BFE01F0AFFF08B105F0C8FFB44C002505F09AFE00F068FE257006F09DFEB14AB14B12689A4200F0D281039509F0DAFA0A200AF09FFCAD4BAD4D1B780C
:40330000DBB22B702B78022B40F2B88100232B70DFF890B2DFF8ACA2DFF8AC92DFF8AC820BF0D6FC002868D008F0B8F80028F7D00BF0CEFC002860D02B789E4E002B40F049
:40334000478101F07FFF0221002800F04B81032007F00EFF01F0F0FF0BF0BAFC00284CD007F0BEFF0028F7D02B78022B02D0072008F068F808F098F80028FBD004F0DCFF05
:403380002E78F6B2012E7AD0012008F05BF8894B1B7803F0FF06002B40F03A81012005F00BF805F07BFE2670667003F087FF03F0E5FA0BF08DFC00B3002663780BB18BF8B0
:4033C000016004F06FF82B78022B01D006F05CFC05F03EFE2378DFB207F088FF002840F09B80002F40F0988008F058F8002800F09B800BF06DFC0028DFD1002608E0013661
:4034000001200AF0F5FBB6F5FA6F28BF4FF4FA660BF05EFC0028F2D040F26B73A6F165029A420ED8B6F5FA6F00F0E5802B78614903F0FF02002B40F0D880039B002B40F07E
:403440000E810AF0D9FA002800F0A38007F0D8FEC02008F00DF814200AF0CAFB002008F007F80BF035FC0028FBD001F089FE00283FF456AF0BF034FC0028FBD050E7022093
:4034800007F0E0FF052004F097FF05F007FE00232370637003F012FF03F070FA0BF018FC0028AAD06378E3B903F0A2FF012007F029FF0128074600F0BD8006F0E5FB05F039
:4034C000C7FD2378DFB207F011FF28BB27BB07F0E5FF48B30BF0FCFB00288ED06378002BE2D0002302208BF8013007F015FFC7B206F094FE3A4602902F49022007F060FF03
:40350000029B184606F080FE3B4600962A4A0121032003F039FFC7E7002004F04DFF07F0BDFF00287FF418AF002004F045FF9AF8003003F0F10343F002038AF8003099F882
:40354000003003F0F10343F0020389F8003098F8003003F0F10343F0020388F8003001F071FE68B11549164A0B7803F0F10343F002030B70137803F0F10343F0020313703B
:40358000002005F057FE0BF0A3FB00283FF435AF5CE702462B781146184609F08FF955E71E5000403C82FF1F209801008F9E939B00800040CC80FF1F4082FF1F09500040E8
:4035C0000850004063500040625000406450004001F038FE20B10221042007F0C9FDB9E63078022107F0C4FDB4E60B78012B04BF00230B7025E701F0D1FD00283FF421AF9C
:403600002A782A4B022A14BF022200221A7018E7092004F0D1FE05F041FD00232370637003F04CFE03F0AAF90BF052FB00283FF4E4AEC1E604231E4A014603F06DFE0028F2
:403640003FF43BAF06F0EAFD402202901849384607F076FE029B184606F0D6FD2DE71146104609F02BF9012003F09EFF09F024F914200AF0E1FA0AF0B3FAE2E62B78022B61
:403680007FF446AE01F08AFD00287FF441AE28703EE6084AA3F1DB431268A3F59733263BD31AB3FA83F35B09039321E6CC80FF1F8082FF1F2498010009490A4A0B78002003
:4036C00003F0F10343F002030B70107000BF00BF00BF0123137000BF00BF00BF704700BF625000400C380A424FF0000170B4104D104E2B78012203F0F1030F4C43F00C032E
:403700002B7032702378104603F0F10343F00C030A4A23703C23117000BF00BF00BF107000BF00BF00BF013BF5D170BC704700BF6350004008380A42625000400C380A42CC
:4037400030B4194B19490024194A08701C70107818490122184DC0B208701A701C702878C0B208701A701C702879C0B208701A701C70287AC0B208701A701C70287BC0B2AB
:4037800008701A701C70287CC0B208701A701C70287DC0B208701A701C70287EC0B208701A7030BC704700BF0C380A42000100200020002208380A420420002238B5084AB2
:4037C000441E1378C51C03F0F10343F00C03137014F8010FFFF7B4FFAC42F9D138BD00BF625000400D4A00230D49137018460B78043203F0F10343F00C030B7014230121C5
:40380000107000BF00BF00BF117000BF00BF00BF013BF5D1034B1878FFF792BF08380A4262500040C082FF1FF8B507460646324A01251378314C03F0F10343F00C0313706C
:4038400017F8010BFFF77CFFFFF736FF2C4B00212C4A197092F800E01D70197010781D70197012781D7084F801E0A070E270FFF723FF3846FFF7A2FF7379002B38D0224B4D
:403880001D701F4B00221A7000BF00BF00BF0121197000BF00BF00BF73790BB11A4B1A70174B00221A7000BF00BF00BF0121197000BF00BF00BF1A7000BF00BF00BF197026
:4038C00000BF00BF00BF1A7000BF00BF00BF197000BF00BF00BF60781A70084B38B1997821B9D878B0FA80F04009F8BD1046F8BD054A1370C5E700BF62500040C082FF1F73
:403900000C380A4228380A4208380A422DE9F04F83B0DFF88CB1047801914179431C8BF80040DFF880915B4D5B4E5C4F8BF8041000930A2418E05A4B96F800E059790EF022
:40394000F10E4EF0020E41F0070186F800E0597187F800A089F800A0013C14F0FF047BD001F00700072877D14FF000084FF0010A8BF80580FFF736FFFFF79EFE89F8008004
:4039800095F800C089F800A089F8008095F800E089F800A089F8008029788BF801C08BF802E05FFA8EFC5FFA81FE4FEA8E0141EA4C0C9BF8011089F800A04CEA01014FFA73
:4039C00081F88BF803E08BF80680FFF775FEB8F1020F48D0B8F1040F45D0D045ABD10098FFF7ECFE2E4B1879002851D087F80080002189F8001000BF00BF00BF012089F8E7
:403A0000000000BF00BF00BF8C463970082189F800C000BF00BF00BF4FF0010E89F8000000BF00BF00BF0139F1D130789BF805C09BF8061000F0F1001A4B013C40F00200C1
:403A40004CEA010114F0FF0430708BF8051087F800E083F800E083D1019B41F02001197003B0BDE8F08F30789BF805E09BF8061000F0F1004EEA010140F002004FF0010E0F
:403A800030708BF8051087F800E089F800E063E73870ADE728380A426250004008380A42C082FF1F0C380A4208B5FFF71DFE9E20FFF746FEE720FFF743FEBDE80840FFF787
:403AC00013BE00BF38B5094A094C137804F11B0503F0F10343F00C031370FF2001E014F8010FFFF72DFEAC42F9D138BD6250004044F4000008B50D4AFF20137803F0F1039C
:403B000043F00C031370FFF71BFE7520FFF718FE7720FFF715FE7720FFF712FE6720FFF70FFEBDE80840FFF7CDBF00BF625000402DE9F04F6C4D002483B06C71FFF752FEA1
:403B4000FFF7BAFD69496A4B0C7001261A780E700C701F780E700C701878FCB2C0B283006A7043EA4403D2B213435BB25A1EAF70E8700E70AB71032A00F2A580DFE802F083
:403B800019021902FFF798FD5A4869790378AA79594F564C03F0F1030A4343F002030121002603706A713970AE60217003B0BDE8F08F524E4FF0000037464E4C4B4B227891
:403BC0004B4902F0F10242F00202DFF838A1DFF83891227006F10408019618700C78DFF82CE10122E4B28EF800401A7018700C78434EE4B28AF800401A7018700C78DFF83F
:403C000010C1E4B289F800401A7018700C78DFF804B1E4B234701A7018700C78DFF8F8E0E4B234711A7018700C78E4B234721A7018700C78E4B28CF800401A7018700C7828
:403C4000DFF8A8C0E4B28BF800401A709EF800E0002407F801EB4745DFF894E0BDD1019E8CF800409EF800708CF80020FFB2FFF723FD16F8013B002B33D0002203F00101D5
:403C80000A445B08D2B2F9D11444B045E4B2F0D104F00104A74203D06B7943F008036B71144869790378AA7903F0F103124E0F4C43F002030A43012103706A713170217009
:403CC00003B0BDE8F08FFFF7F7FC0A486A790378094E03F0F103054C43F0020342F00702E9E71A46D0E700BFC082FF1F0C380A4228380A426250004008380A42C882FF1F2A
:403D00000C200022042000220820002200200022182000221C2000220001002004281CD8DFE800F0080D111603000D4B04221A73012070470A4B00221A7301207047084B62
:403D4000012018737047064B02221A7301207047034B03221A73012070470020704700BFC082FF1F114B1A78824211D010B4104A104C117868B901F0FB011170217801F089
:403D8000FB012170117801F0F701117010BC1870704741F004011170217841F004012170117841F008011170F0E700BFD080FF1FC6510040C751004038B5334B984222D82B
:403DC000324A33494300B1FBF3F1B2FBF3F003FB01F203FB00F3C2F17472C3F1B77302F5104203F558539A423DD904463BBB38BB05460BF08DFA01284FF0520429D00BF07F
:403E0000D7F9012008E03C2401250BF081FA042824D00BF0CDF904200BF04EFA284601210BF0D6F90BF0B4F91A4B1B4A197B5C6001FB0444A2FB0424A4099C6038BD01346D
:403E4000601E522385B203FB04F40BF061FA0128D5D1014628460BF0BBF9E5E7284601210BF0B6F9E0E71AB941B90D461E24CCE74C1CC4EB041464008DB2C6E74D1E1E248B
:403E8000ADB204FB01F4C0E70024F40000366E010090D003D080FF1FD34D6210B8B1402810D841000C4A0139C9B210730B4B0C481970117B536801FB0333A0FB03139B095F
:403EC00093607047044A402313737F21EEE7024A01211173EAE700BFD080FF1F8D640040D34D62101D4A38B500F00F0313441A7F1B4B1C4C1A70237883070D461AD507208D
:403F00000BF040F923461A78002AFCD0164B1B682B60164B00201C780BF034F9144BC4F302149868B0F5803F0FD280B209F084FE204638BD0F4B0A6805201A600BF022F9B6
:403F400023461A78002AFCD0E3E70B4BA3FB0030800909F04DFE204638BD00BF44F40000476400406C6400405264004057640040D080FF1F42640040D34D6210094B0A4AC9
:403F8000198B01290CBF01210021517306D0587808B903F077B9012003F074B9022003F071B900BFC884FF1FD080FF1F38B52B4C2B4B21780022212058711A709A719A6092
:403FC00071B1284B2848197801F0FB011970017801F0FB010170197801F0F701197022700BF0D6F8214A22491368224843F0033313600B68027B204843F0030310250B60B8
:4040000005702AB1402A23D9402323737F2302E00122134622731949194A0B701378002043F0200313708B7A43F020038B72D37943F02003D3714B7B43F020034B73537994
:4040400043F0200353710BF09DF80E4B1B7838BD5300013B2273DBB2DDE700BFD080FF1FC082FF1FC6510040C75100409264004097640040C884FF1F276400408D6400402D
:40408000986400406C6400400006030C70B4DA11C3F3002102EBD3320A44C3F340210A44C3F3802183B00A44C3F3C021019002AD0A44C3F300360D4C40F0F001164455F80A
:4040C000040DC3F3403201913244C4F8230002EB9333286803F00103C4F8290084F8273084F82D3003B070BC704700BFD080FF1F10B5234C00230328A4F8703011D8022841
:4041000012D220B3012821D141B301292CD101F099F800282FD00423A4F87030194A138010BD052809D00ED2164A4FF448714FF4C8731180A4F8703010BD124A0223138055
:40414000A4F8703010BDFE28F6D3EDE710BD29B1012909D101F076F80028DCD1094A0223A4F87030138010BD02221346A4F87020044A138010BDF023A4F87030CEE700BF66
:40418000D080FF1FC484FF1F70B5164C4FF4C8702678237806F00E0603F0F10343F00C0323702378104D03F0FE03237009F044FD237843F00103237009F066FB044600E088
:4041C0003BB909F061FB201A2B7880B24F28DBB2F6D9044A0120137803F0F1031E43167070BD00BF6450004030380A4210B1012802D07047FFF7C8BF10B5044601F030F820
:4042000000B910BD002008F037FB642009F0F0FC204608F031FBBDE81040642009F00CBD2DE9F04FFE2889B004460F46914600F0B580012918BF002600F05287032C00F022
:40424000F6825AD9052C00F0AC82C0F02281FE2C00F08A81FF2C40F0BE80BA4D2B7B002B00F0ED83032B00F04084042B00F04284012B40F0E483B44CB44B63670BF06CF849
:4042800080463846FFF7B2FF09F0FEFAA527814601E0012E13D0636F98472F70FFF748FC6E7909F0F1FAB4F87030C0EB090080B2834206F00F06ECD8012E40F0EB82FFF7BF
:4042C00013FAA5232B70FFF733FC6B799D4A03F00F03012B00F0E884FFF706FAA5232B70FFF726FC6B7903F00F03012B40F09D8206A99748FFF70AFB97E2012C00F0DE827D
:404300006ED8904D2B7B002B00F0B583032B00F0FE83042B00F0F783012B00F0AC838A4C8C4B63670BF018F880463846FFF75EFF09F0AAFAA527814601E0012E13D0636FD0
:4043400098472F70FFF7F4FB6E7909F09DFAB4F87030C0EB090080B2834206F00F06ECD8012E40F09782DFF8F4917B4C012009F1040706AE00EB400004EB40003146FFF761
:40438000C5FA9DF8183003F00703012B40F04182B94500F08C8319F8010FEBE7507895789928D1781679537900F0EF810026012F40F0DA8000F046FF002800F0D580002019
:4043C00008F05AFA642009F013FC00F0A9FFB0F57A7F7FF633AF0024204609B0BDE8F08F584D2B7B002B00F02E83032B00F07183042B00F07283012B40F02583524C534B74
:4044000063670AF0A9FF80463846FFF7EFFE09F03BFAA527814601E0012E13D0636F98472F70FFF785FB6E7909F02EFAB4F87030C0EB090080B2834206F00F06ECD8012E72
:4044400040F02882FFF750F9A5232B70FFF770FB6B7903F00F03012B7FF43EAFDFF800913D4C022009F1040706AE00EB400004EB40003146FFF74AFA9DF8183003F0070339
:40448000012B7FF429AF4F4500F0C58319F8010FEBE72C4D2B7B002B00F0E582032B00F02E83042B00F01D83012B40F0DC82264C264B63670AF050FF80463846FFF796FE19
:4044C00009F0E2F9A527814601E0012E13D0636F98472F70FFF72CFB6E7909F0D5F9B4F87030C0EB090080B2834206F00F06ECD8012E40F0CF81FFF7F7F8A5232B70FFF794
:4045000017FB6B7903F00F03012B7FF4E5AEDFF85490114C022009F1040706AE00EB400004EB40003146FFF7F1F99DF8183003F00703012B7FF4D0AE4F4500F06C8319F82F
:40454000010FEBE7C082FF1FD080FF1FE93600003A81FF1FA93A0000E080FF1F9CF4000070F4000080F40000CE4D2B7B002B00F07E82032B00F0D782042B00F0A682012B04
:4045800040F07582C84CC94B63670AF0E5FE02903846FFF72BFE09F077F999F800308046039399F801300193002E40F08B82019B03F00407FFB2002E00F0B581002F00F0D1
:4045C000B7819DF804304FF0010B2B70FFF7B0FA6B7903F00F03CBEB030ABAFA8AFA4FEA5A1A09F051F9B4F87020C0EB080080B2824240F24482BAF1000FDCD00BF1010B15
:4046000019F80B80002E00F02483039B012B40F2238301960127039EA2E0BBF1370F00F296820BF1010309EB0300427819F80330C1781204847842EA03630B4343EA042424
:40464000230C5FFA83FA5FFA84FC0AF0010202EBE4310CF001020A4402EBE412C4F3072002EBD33200F0010102EBD3120A44C4F340210A44C4F380210A44C4F3C021114452
:40468000C4F300321144C4F340321144C4F380321144C4F340021144C4F380021144C4F3C0021144C4F300121144C4F340124FEA132E0A44C4F3801111440EF001021144F4
:4046C000C3F340221144C3F380221144C3F3C0221144C3F300321144C3F340321144C3F380321144C3F340021144C3F380021144C3F3C0021144C3F300120A44C3F3401178
:404700000A4402EB931319F80B2003F001038DF81A0006A88DF81D308DF81BA08DF819C08DF81CE08DF81820FFF77EF8034628B1019A1AB1B8F1BB0F00F078820BF1050B0D
:404740005FFA8BFB0137FFB219F80B80002B00F0FE81BE4200F08082BBF13C0F00F0F78118F0040F3FF459AF85F80080FFF7E0F96B790BF1010B03F00F03A3F10103B3FA92
:4047800083F35FFA8BFB5B09DCE7090441EA05610B43474943EA06235E1AB6FA86F6760905E6404D2B7B002B00F05581032B00F0C281042B00F0BB81012B40F04C813A4C0E
:4047C0003A4B63670AF0C8FD80463846FFF70EFD636F984709F058F8074600E06EB93548FFF722F8064609F04FF8B4F87030381A80B28342F2D8002E4CD006AE31462E48B5
:40480000FFF784F89DF8183003F00703012B00F04381FEF769FFA5232B70FFF789F96B7903F00F03012B00F08D82002433E01D4D2B7B002B00F01381032B00F08081042BBC
:4048400000F06981012B40F00A81174C174B63670AF082FD80463846FFF7C8FC09F014F8A527814602E0012E00F0F881636F98472F70FFF75DF96E7909F006F8B4F8703099
:40488000C0EB090080B2834206F00F06EBD8012E00F0E481022440460AF062FD204609B0BDE8F08FC082FF1FD080FF1FE9360000DB060C7BE080FF1F0A81FF1FAB4D2B7B99
:4048C000002B00F0C480032B00F03D81042B00F02681012B00F0BB80A54CA64B63670AF03BFD06463846FFF781FC636F984708F0CBFF804602E0002F40F0A4819E48FEF7CB
:4049000093FF074608F0C0FFB4F87030C0EB080080B28342EFD80224002F40F0938130460AF01EFD58E5636F9847002F7FF449AE99F8031099F8022099F80530090441EA24
:40494000026299F804101A4342EA01231A0C5FFA82FED8B20EF0010C00F001010CEBE33C8C440CEBE31CC3F307210CEBD23C01F0010B0CEBD21CDC44C3F3402BDC44C3F343
:40498000802BDC44C3F3C02BDC44C3F3003BE344C3F3403CE344C3F3803CE344C3F3400CE344C3F3800CE344C3F3C00CE344C3F3001CE344C3F3401CDC44C3F3801363440B
:4049C0004FEA122C0CF0010B5B44C2F3402B5B44C2F3802B5B44C2F3C02B5B44C2F3003B9B44C2F340339B44C2F380339B44C2F340039B44C2F380039B44C2F3C0039B443A
:404A0000C2F300139B44C2F340135B4403EB921299F8013002F001028DF8190006A88DF81BE08DF81A108DF81CC08DF81D208DF81830FEF7F9FE4FF0050B8246D1E54C4C23
:404A40004C4B63671AE44A4C4A4B6367D9E4484C4A4B636743E7464C464B6367B2E6444C444B6367F4E6424C424B636722E5404C404B636789E53E4C404B636752E40BF174
:404A8000010B19F80B800224BAF1000F7FF4BAAD02980AF065FC9FE431463948FEF736FF9DF8183003F00703012B7FF4B2AEBD232B70FFF73DF86C7904F00F04012C7FF4EF
:404AC000A8AEE8E6636F984771E5294C2D4B63675BE5274C2C4B636793E4254C294B63678FE4234C274B6367E4E4214C264B6367FFF7C4BB1E4C234B6367FFF7BFBB1C4C3D
:404B0000214B6367D6E41A4C1E4B63670AE4184C1D4B636706E4164C1A4B636798E6144C184B6367DBE6124C174B63672DE5104C144B636746E60E4C134B636742E60C4CD2
:404B4000114B636784E60A4C0F4B6367C7E6FEF7CBFDA5232B70FEF7EBFF6B7903F00F03012B00F01181002492E700BFC082FF1FD080FF1FA93A0000E080FF1FE93600003E
:404B80002E81FF1FF53A0000C53A0000EF89DFF8A4B2002F00F0FD80BE2F00F08B8240F2118140F205139F4200F02D81B7F5837FC0F01F81B7F5877FC0F07E8240F20F138E
:404BC0009F4200F08082B7F5887F40F00C810423914F31461F4497F84800DFF8489200EB400004EB4000FEF791FE9DF8183003F00703012B7FF470AB97F85030062000FB67
:404C000003903146FEF782FE9DF8183003F00703012B7FF461ABBD232B70FEF789FF6C7904F00F04012C7FF457AB34E67B4A94427FF484AD0390012008F0DAFFFEF734FFE4
:404C4000039B7BE57648FEF7EFFD002849D1002465E6FEF749FDD8E4012419E7FEF744FDA5232B70FEF764FF6B7903F00F03012B7FF432ABDFF8C4916A4C022009F104076B
:404C800006AE00EB400004EB40003146FEF73EFE9DF8183003F00703012B7FF41DAB4F45B9D019F8010FECE7DFF894A1D2F808905C4C0AF10207022006AE00EB400004EBE2
:404CC00040003146FEF722FE9DF8183003F00703012B7FF401AB57453FF458AF1AF8010FEBE75148FEF7A0FD002849D04F4B0021197000BF00BF00BF01221A7000BF00BFE1
:404D000000BF197000BF00BF00BF1A7000BF00BF00BF197000BF00BF00BF1A7000BF00BF00BFA0B9FEF7E0FCA5232B70FEF700FF6B7903F00F03012B89D106A93C48FEF782
:404D4000E5FD84E731463A48FEF7E0FD6DE5104608F04EFFFEF7A8FEA5232B70FEF7E8FE6B79344C03F00F03012BDBD1BD232370FEF7DEFE647904F00F04012CD2D1CEE569
:404D80002948FEF751FDB1E706A92948FEF7BEFDE9E6B7238BF80030FEF7CAFEFEF7C8FE9BF8053003F00F03012B7FF495AADBF8083003F00302032A44D0EF89002F3FF43A
:404DC0008BAAE9E6A32F00F0758140F26C81AC2F40F28081B52F00F06D81B82F00F06A81AE2F00F06781144B99457FF475AA0123EEE640F201139F4200F06581B7F5817F21
:404E000003D340F060810223E2E6C22F00F05281B7F5807FF7D0E6E744F40000A9307EEA1681FF1FE080FF1F2E81FF1F0C380A423A81FF1FC082FF1F7714A02B78F40000A7
:404E400088F400003146AB4823F47F6AFEF75EFD9DF818302AF00F0A03F00703012BACD13146A548FEF752FD9DF8183003F00703012BA2D10AF57E610B0CD8B200F00102B3
:404E800002EBE132063202EBE11202EBD33202EBD312C1F3003CC1F3403E9444F444C1F380324FEA132E94440EF001029444C3F340229444C3F380229444C3F3C0229444C3
:404EC000C3F300329444C3F340329444C3F380329444C3F340029444C3F380029444C3F3C0029444C3F300129444C3F34012624402EB93130A1203F001038DF81B008DF869
:404F00001A204FF08B0CE0220DF1170130468DF81D308DF81CE08DF818C08DF81920FEF7F5FC9DF8173003F00703012B7FF4D4A9019626461C4659464FF09F0B029185F88D
:404F400000B0FEF7F5FD6A79029902F00F02012A02D03446019E30E704F10052023A012C4FEAC20206D0087A052C00FA02F247EA020701D00134E1E70AF57D6A4FEA1A4344
:404F8000D8B200F0010202EBEA32063202EBEA1202EBD33202EBD312CAF3003ECAF3403196448E44CAF3803296441A0A02F001018E44C3F340218E44C3F380218E44C3F3B6
:404FC000C0218E44C3F300318E44C3F340318E44C3F380318E44C3F340018E44C3F380018E44C3F3C0018E44C3F300118E44C3F3401171443446019E01EB93134FEA2A2A6B
:4050000003F001034FF08B0C8DF81B004FF0D00E0DF1170130468DF81AA08DF81C208DF81D308DF818C08DF819E0FEF76FFC9DF817A00AF0070ABAF1010F7FF4BEAE4FF01D
:40504000000B2E499F2201E00AF1010A02912A700192FEF76DFD6B79284803F00F03012B019A02997FF4A9AE0AF10053023BBAF1010F4FEAC303E7D091F808E0BAF1050F36
:405080000EFA03F34BEA030BDED107F47F23B3F5342F7FF492AEBBF1000F7FF48EAEC7F30B07C78189E69E2F04D00ED8923F042F3FF699AE00238BE5B7F5857F03D8B7F5E7
:4050C000847F3FF690AE032382E5A03F012F3FF68AAEEFE7A92FEDD2A72F7FF484AEE9E700F0B0F810B90646FFF7A8B80026FFF766B900BFF280FF1F0481FF1FC082FF1FE9
:40510000034B044A1B78C3EBC30312F813007047D082FF1F48F80000064B5A783AB91B78054AC3EBC30302EB4303587870470020704700BFD082FF1F48F80000014B01226D
:405140005A707047D082FF1F044B054A1B78C3EBC30302EB43039878704700BFD082FF1F48F80000044B054A1B78C3EBC30302EB4303187B704700BFD082FF1F48F800009F
:40518000044B054A1B78C3EBC30302EB4303D878704700BFD082FF1F48F80000044B054A1B78C3EBC30302EB43031879704700BFD082FF1F48F80000044B054A1B78C3EB33
:4051C000C30302EB43035879704700BFD082FF1F48F80000044B054A1B78C3EBC30302EB43039879704700BFD082FF1F48F80000044B054A1B78C3EBC30302EB4303D87987
:40520000704700BFD082FF1F48F80000044B054A1B78C3EBC30302EB4303187A704700BFD082FF1F48F80000044B054A1B78C3EBC30302EB4303587A704700BFD082FF1F28
:4052400048F80000044B054A1B78C3EBC30302EB4303987A704700BFD082FF1F48F80000044B054A1B78C3EBC30302EB4303D87A704700BFD082FF1F48F80000064B9A782B
:405280003AB91B78054AC3EBC30302EB4303587B70470020704700BFD082FF1F48F80000014B01229A707047D082FF1F014B1878704700BFD082FF1F014B187C704700BFEA
:4052C0004881FF1F014B587C704700BF4881FF1F014B588A80B270474881FF1F08B509F029FDC043044A00F01F0313700020BDE8084009F0FDBC00BFD082FF1F38B5054664
:405300000C462820002107F013FF284607F09CFF204607F099FFBDE8384007F079BF00BF08B507F0F5FC20EAE07000EB4000401007F0DCFC80B208BD10B509F003FD00208B
:4053400009F00EFD07F086FC07F0E2FC4FF47A7303FB00F313F5007048BF03F2FF50801207F0BEFC184C012009F0FAFCC82008F03FFC237883B107F049FDFFF77FFF00B9EC
:4053800010BD0021282007F0D3FEC0B107F052FDBDE81040FFF784BFFFF7C2FFB0F5E16F0AD8FFF74FFF20B9084A137843F00103137001232370DEE7FFF7C0FEF9E7BDE813
:4053C000104007F025BF00BFD482FF1F17500040F8B54E4B05465880FFF734FF002800F0908080210220FFF789FFFFF799FF00210646282007F09CFE002007F025FF01217C
:40540000282007F0D1FE002007F04AFF044607F0FFFEB54234BF771BAF1BBFB2B54244D9FF2C01D00134E4B221460020FFF766FF012008F0DDFBFFF773FF85424ED2431BAE
:40544000B5429BB241D99F420CD2B5428CBF04F1FF340134E4B200202146FFF74FFF012008F0C6FBFFF75CFF854234BF401B281A002186B20220FFF741FF21460020FFF75F
:405480003DFF1E2008F0B4FB00210220FFF736FF07F034FF07F04CFF41F294139D422AD8592E8CBF00200120F8BD0CB1013CE4B221460020FFF722FF012008F099FBFFF79D
:4054C0002FFF854214D32B1A9BB28542BBD8B4FA84F25209002AB6D11F469FE72B1AB5429BB2F2D9A4F1FF02B2FA82F25209F1E7431B9BB2E9E7B6F5FA7F2CBF00200120C1
:40550000F8BD012007F0B8F96BE700BFD482FF1F014B5888704700BFD482FF1F2DE9F04F03788DB083F080021F2A28D90B7004784B1C0546894600931D2C00F2B882DFE8BF
:4055400014F0A10266026E028701D700B6004402B602A50079017001B602B602B602B602B602FA00E600C801B7010B0273006800B602B602B602B602B602B602250003F0C0
:40558000CDF9044620460DB0BDE8F08F0020FEF7E9FB002389F801306F780126A91C09F10209013FB046DFF89CA30C460FE043F002038AF800304A46214601F0FBFD002F68
:4055C00001F0598108F10108A9442E44013F7A1C00F0958220789AF8003010F03F051ABF0735ED080825010604F1010403F0F103DDD443F00C038AF800304A46214601F058
:40560000D9FD002F01F0668108F10108A8442C44DCE7B94B1A78022A00F01F85FF2389F801304FF00214ADE7FFF70CFE002800F08B826C78DFF8C0B202358BF81A40DCB166
:405640000BF11B010E460BF122002F19002215F8013BAF4206F8013F20F8022F1A44F6D104F11905A54B0BEB450511F8010F121A23F8022F9D42F8D1002389F801300134CA
:40568000240444F0010404F101147BE79A4C2378012B00F08082022B04D1FFF7D3FD002840F00C86FF2389F80130954C6AE7DFF848B2431C08939BF80030012B079300F082
:4056C0007C82022B40F05282FFF7BCFD002840F09A86AB78033533B91CE2D60606D40135013B00F017822A789707F6D40535F7E74278814B10461A736A88814C1A82AA8846
:405700005A82FEF7CBFB002389F801303AE7D0F80100002800F026827A4B984240F27784754B01225A705A60FEF746FB002389F80130754C26E787784478D0F80350FFF77B
:4057400081FD80460020FEF70DFB17F0010106D014F0010300F09D846C4B01221A7007F0020303F0FF064BB104F0020303F0FF02002B00F09284664B01221A7007F0040302
:4057800003F0FF0E2BB1B8F1000F02D0614BA2081A7027F07F0303F0FF0A6BB15E4AE309137800F07E8443F001031370137803F0F10343F002031370EDB1584B07F02002A0
:4057C000D2B25868CDF800E096461D46A308039363090293DFF84CB1E309514F4FEA540C0193002900F068813B789C4200F064816B689842F5D04A4A4A494B4B1278097810
:405800001B784A4C9B004A4843EA410123780A43017842EAC30343EAC11389F80130454CB0E6FEF7B1FC002389F8020089F80130414CA7E6B0F80120162303FB02F313B1A9
:40584000013B002BFCD1002389F801303B4C99E6294B3B4A0021197013783A4903F0F10343F0020313700B7803F0F10343F002030B70537803F0F10343F002035370FFF706
:40588000E1FC68B13049314A0B7803F0F10343F002030B70137803F0F10343F002031370002003F0C7FC002389F80130284C69E64378114903F003020132C3F380034B760C
:4058C0000A76FEF75BFB002389F801304FF0021458E646780235002E40F03B811D4C4FF480760020FEF73EFA2946304601F02CFC002389F8013045E6C884FF1FFA84FF1F73
:40590000020006007F841E00020005000C380A4208380A4204220A4264500040001000E02C380A4228380A4224220A4220220A4230380A4202000700030001000200030083
:40594000635000406250004009500040085000400200010002002200FFF774FC8246002800F0E580002389F8013009F1020B012300931F46AA1C6C784FF0000804E0571902
:4059800009EB050208F10108444502F1010900F0BB801678082516F03F0202F1070218BFD5087A1CBAF1000FE9D05A464946304601F044FE013733062F4409EB0502E1D511
:4059C000009BAB442B440093DCE7DFF840B39BF80060012E00F0A882022E40F09F82FFF731FC002840F07D8489F8010089F8020089F8030003262B79990757BF6C8846F41B
:405A00008026013446EA844606F10114BAE54378012B7FF618AFFF234B70BB4CB2E54578002D40F08A80B94CB949BA4B0120BA4A2070087018701378B849034313700B788B
:405A4000B74C03F0F10343F00C030B70237803F0F10343F00C0323701378044603F0F10343F00203137011F8593C03F0F10343F0020301F8593C03F0DDFB89F801404FF09A
:405A800002147FE54378F02B00F0268340F2D482FE2B00F01C83FF2B40F0158300234022A04CCB708A70022389F801306AE5FF230B704FF0011465E526B19BF800309C4549
:405AC0007FF496AE009B43B1B8F1000F05D0964B039A1B789A427FF48BAEBEF1000F03D0029B002B7FF484AEBAF1000F3FF483AE8E4B019A1B789A427FF47AAE7BE646EA0F
:405B0000084404F101143DE5009B43EA074404F1011437E5089BEC1A2404002344F0020404F1011489F8013089F802302AE5FF2389F8013009F1020B19E7012D3FF473AFAA
:405B4000022D21D0002498E7FF236C7889F8013095E5F41DE4080134240444F0010404F10114BEE6FF234B70714C0BE5837803352BB9CFE7D00605D40135013BCAD02A783B
:405B80009407F7D40535F8E7FFF75CFB002840F0D682044671E7D0F80220664B0CAC44F8042D1878FEF7DEF82146002001F080FB002389F80130604CE4E482785D4B174671
:405BC0005E4C18780026CB1C0192267003350693FEF7C8F8002F00F077863146099604960596CDF808902E786B1C039306F0020303F0FF08002B00F0C180059B43B306F04B
:405C00001103012BBBF810704FF0000809D1A0E0474500F07181237808F10108002B40F06B810BA90E2001F043FB0228F0D0014600230593012940F02886069F0B9B180A8C
:405C40001A0C3B701B0EFB703B1D7870BA70069306F0100303F0FF02002B00F0EA806B1DF707D5F801800393BBF812A015D5274B00271D8A07E0BD4200F0468123780137D1
:405C8000002B40F047810021304601F011FB0228F1D00128014640F03E810027BBF810504FF0000906E04D455DD0237809F10109002B58D10BA9304601F0FAFA0228014649
:405CC000F1D001284FD1DBF814200B9B1340984500F09981BA4503D023780137002BDDD0DDF8089040F01001C9B2019B039A05E0C00606D40132013B00F0DE81107885077D
:405D0000F6D40532F7E700BF02000300C884FF1F0C380A4208380A426450004062500040635000400400020024220A4230380A4202000500DD80FF1F020006000C85FF1FDC
:405D4000474500F0BB81237808F10108002B40F0B5810BA9304601F0ABFA0228F0D001230146059366E7DBF814200B9BDDF8089013409845B6D1019B039ABFE7059B03B33D
:405D8000BBF8107008E0474500F0A880237808F10108002B40F0A2800BA90E2001F088FA0228F0D00128014640F09980069F0B9B190A1A0C3B701B0EFB703B1D7970BA70D4
:405DC0000693D5F8012006F020030B92053503F0FF08002B6CD00023CBF8142005930121049A237801320492002B40F06282019B013B01937FF4F7AEDDF808900395012903
:405E000000F07781CBB20793039B089A9C1A069B009AC2EB030B9DF810304BEA044489F801309DF81C3004F1011489F80230FFF7A9BB16F00105BBF8107020D0059B002B81
:405E400040F0DC801D4605E0BD425DD023780135002B5FD10021304601F02AFA0228F3D00128014640F011850023039D09930590B6E7AF4248D023780135002B4AD10BA9C2
:405E8000304601F015FA0228F3D00128014640F0FC84069F0B9B039D180A1A0C3B701B0EFB70002309933B1D7870BA70069397E7BBF8107005E0B84516D0237808F1010815
:405EC00093B90BA9304601F0F3F90228F3D0012801460AD100230990059381E701460123DDF80890059346E7014600230593DDF808902A46019B01E70023DDF80890059333
:405F00000221019B039AF9E6019B0146039ADDF80890F3E60146DDF808902CE700234B708B70CB70032666E5B74BB84C1878FDF719FF6B8809F104011A46019300232370D3
:405F40000291002A00F02E8195F8048008F0020101F0FF02002940F029816B1D03951E465D4693460BAFCDF8109056F8043BB5F810A00B934FF0000905E0CA4535D0237841
:405F800009F101098BBB3946404601F091F90228F3D0012829D1019B0BF1010B5B45E4D1DA46AB46DDF81090039DBBF810704FF0000805E0B84509D0237808F101082BB932
:405FC00000210E2001F074F90228F3D006465FFA8AF3CAF3072289F8013089F80220029B009A89F803609E1A05E50646039DDDF810905FFA8BF3CBF30722ECE70123039D37
:4060000009920593ECE60023039D0993E8E6804BDFF820B20344B3FBF0F30022102B8BF8012064D0A2F155320E3BA2FB03235B08CBF80430FFF778BB042B44D1754B8A1C5A
:406040001B78754C012B0CBF744B754B18689988C9F802000623918026E54278997EDA7691427FF6DBAA0E2001F004FD01F042FB0023040A010C020E89F8034089F80200DC
:4060800089F8041089F8052089F80130654CFFF779BA654A1370FFF762BB644B1A70FFF76DBB03F0FE031370137803F0F10343F00C031370FFF780BB0392A0E60123DDF88A
:4060C000089005931CE74FF002140023ECE440238B70574C0123E7E4FFF7B4F800280CBF1123132389F80230514C0123DCE401239EE7059B002B00F07181BBF81050002673
:406100000BAF07E0B54200F07C8123780136002B40F0778139460E2001F0CAF80228F1D0012840F06E81069C0B9B190A1A0C23701B0EE370231D6170A270069364E63D4AF5
:4061400039483D49394E157001233C4A337003700B7013783A4843F0010313700378394903F0F10343F00C0303700B7803F0F10343F00C030B70137803F0F10343F00C0396
:40618000137010F8593C03F0F10343F00C0300F8593C11F85B3C03F0F10343F0020301F85B3C6AE4019E3246334614E718F0010F15D09A46BBF8107008E0574500F0B98222
:4061C00023780AF1010A002B40F0B3820021404601F06EF80228F0D0012840F0AA82019B0495013B039300231D46DDF808A00BAF0696CDF81490039BAB4200F05F83BBF828
:4062000010604FF0000925E0DD80FF1F0C85FF1FFF47E801CC80FF1F08000200A4F40000ACF40000060002000C380A4208380A4203000200C884FF1F04220A4264500040A3
:406240006250004063500040B14527D0237809F101091BBB3946404601F02AF80228F3D001281BD10B9B0AF1040A190A1A0C0AF8043C0AF8031C0AF8022C1B0E0AF8013CCA
:40628000019B0135AB42B6D11A46CDF808A0069E049DDDF81490DBB2120A9CE62A46CDF808A0D3B2049DDDF814900646C2F3072291E6DDF808902A46019B1FE56B78A27E45
:4062C000E3769A427FF6EEA9082001F0D3FBD5F8020001F0B7FA002389F80130AC4CFFF751B96B789BF81A10AA4C002709F10402994227708BF81B30019240F23F826B88C2
:406300000293002B00F02C822B7913F0010F0CBF0A220B2210460393059201F0ABFB039901F0020303F0FF020491002B00F03482BBF8108007E0B84500F0AD822378013705
:40634000002B40F0A8820021039801F0FDFC0228F1D0012840F07582029B0395013B019D06960793049E4FF0000A0BAFCDF81090079B9A4500F09282BBF810804FF0000958
:4063800008E0C84500F0FE81237809F10109002B40F0F8813946304601F0D6FC0228F0D0012840F052820B9B0435190A1A0C05F8043C05F8031C05F8022C1B0E05F8013C28
:4063C000029B0AF1010A5345D2D11A460195DDF81090039D0646DBB2120AC4E1099B002B3FF412AD059EBBF8105004E0AE4208D0237801362BB900210E2000F059FF022880
:40640000F4D0079000E56A789BF81A10614C0023914223708BF81B2009F1030A40F28D81AA7803350992002A00F04082049301932E786A1C16F0010F05920CBF0A220B2249
:40644000B107029240F198800199002900F01D819A42BBF8107000F051810A2B02D00A2001F008FB4FF0000808E0474500F03081237808F10108002B40F02A810BA90E205F
:4064800001F062FC0228F0D0014600220A230192012940F011820B9A0AF10401100A8AF800208AF80100100C120E8AF80320F2068AF8020040F118818A46D5F8012002982A
:4064C00003926A1D0592BBF812209842069201D001F0D0FABBF81050002707E0BD4200F0FD8023780137002B40F0F8800021304601F02AFC0228F1D00128014626D10027AC
:40650000BBF810504FF0000805E045452CD0237808F1010843BB0BA9304601F015FC02280146F2D001281FD1DBF814200B9B1340039A9A4200F0FA80069BBB4203D0237894
:406540000137002BDCD040F01001C9B2059D099B05E0D20606D40135013B00F066812A789007F6D40535F7E7DBF814200B9B1340039A9342E7D1E9E7019A7AB30A2B02D046
:406580000A2001F077FABBF810704FF000080CE0020006000C85FF1F474500F0A180237808F10108002B40F09B800BA90E2001F0CBFB0228F0D00128014640F07C810B9ABD
:4065C0000A23110A8AF800208AF80110110C120E8AF802108AF803200AF1040AD5F80120B70605F105050B9232D5CBF81420002201920499227801310491002A40F01D81AE
:40660000099A013A09927FF413AF0A2B02D00A2001F030FA019B002B00F06681BBF8108000260BAF07E0464500F06E8123780136002B40F0698139460E2001F085FB0228EF
:40664000F1D0012800F063819DF81030079076E00298984201D001F00DFABBF810704FF0000805E0B8452ED0237808F1010853BB0BA9304601F068FB0228F3D0012801467D
:4066800022D10022029B0192B3E7F2063FF515AF0298984201D001F0EDF9BBF81050002704E0AF4226D0237801371BBB0021304601F04AFB0228F4D00128014605D1029BA3
:4066C000059D019095E701460595002301933DE70A23029300230193022137E7014635E70A230146029331E7019A8A46002ACFD0059D7EE700230146019327E706F01002A2
:4067000002F0FF08002A7FF4A8AE06E04745E3D0237808F10108002BDED10BA9304601F013FB0228F2D00146029BB1E6029B059D5FE70022064613464DE407930235089A51
:4067400089F80130AC1A009A9DF81C30C2EB0A0A4AEA044404F1011489F80230FEF712BF029E3246334689F8013089F8022089F803609DE80C009E1AFFF73DB93E463A4663
:406780003B46F0E70195069E039DDDF810905FFA8AF3CAF30722E6E790466B1DDDF80CA006930BAF04960395069ABBF8106052F8043B002506920B9304E0AE422ED0237831
:4067C00001355BBB3946504601F0BEFA0228F4D0012849D1029B08F101084345E4D1059B049E0A2B039D02D00A2001F043F9BBF810704FF0000A05E0BA4530D023780AF14C
:40680000010A63BB00210E2001F09EFA0228F3D006465FFA88F3C8F30722A4E7049E039D5FFA88F3C8F307229DE7012900F08180CAB29DF81030079281E70293059501219F
:4068400084E60022064613468DE70195DDF81090039D06465FFA8AF3CAF3072283E75FFA88F3C8F307227EE7039D06465FFA88F3C8F3072277E79AF8003003F0F10343F05B
:406880000C038AF80030FEF79DBE019B039ADDF80890FFF733BA0022134664E7059B0A2B07D00A2001F0E6F80E2665E5099B079345E70E2660E50A23029347E618F0010F6B
:4068C00018BF4FF00E089AE4019B039507930493FFF79ABA9AF8003003F0F10343F00C038AF80030FEF790BE019EBBF8107002E02378013643B900210E2001F025FA022854
:406900007FF4A2AEBE42F3D19DF8103017E70B9A9DF81030140A110C8AF80020120E8AF801408AF802108AF8032007900AF1040A05E7029B69E600BFF8B503787F2B03D0AE
:40694000BDE8F840FEF7EABD0E46044606F8023B457802344D7075B14FF0021731462046FEF7DCFD013D83B2074404EB10441E44F4D13846F8BD4FF00210F8BD38B5244C2E
:4069800000251020082164220123606021732282237625706570658265616576FEF752FC00B1A576FDF7EAFA1A481B4903781B4A03F0F10343F0020303700B78184803F037
:4069C000F10343F002030B701378164903F0F103012443F00203137004700C70137823431370FEF72FFC88B10F49104A0B78104803F0F10343F002030B7013780D4903F087
:406A0000F10343F00203137004700C7038BD00BFC884FF1F63500040625000406450004008380A420C380A42095000400850004004220A4200220A422DE9F047074686086B
:406A40004FEA500E0EEB0600904B914A5FFA86F83844FE08012400255FFA8EFE30445FFA87FC1470F6B21D70C0B21C7082F800C01D701C7082F800E0DFF81CE21D701C70A0
:406A800082F800801D701C7016701D701C7010701D701C7015701D701C7014701D701C709EF800007B4E00F0F100327E40F002008EF800001AB1013A1D701C70FBD1734BFF
:406AC0000024DFF8DC811C70012298F800E01A701C7098F800001A701C7098F800501A70AD0045EA400040EA0E0090424FD0022818D0042816D01146327E2132013A1C706F
:406B00004FF001051970F9D1634A614913785FFA80FC03F0F10343F00C0313700D706046BDE8F087737E53B1BB0708D54FF00004564A21230121013B14701170FBD1337E80
:406B40003BB14FF00004514A0121013B14701170FBD1514A717E137803F0F10343F00C03137061B117F0020709D13C46484B474A1F7001212123013B14701170FBD1444B28
:406B800001225FFA80FC1A706046BDE8F08717F0020536D08246A646A146202583F8009098F80020013DD2B24FEAC27C14444CEA5E0E364883F800A0DFF8E4C04FF0010259
:406BC000ECD105709CF8003002705C4014F0010F14BF4FF0080C944609B1C1F800E0337E3BB14FF00000294A0121013B10701170FBD1294A137803F0F10343F00C03137006
:406C00002CE0327E2C461AB1013A1C701870FBD10024A146204ADFF8788013784FF0010C03F0F10343F00C0313700B6817492022D8B2013A88F800001C4481F800904FEA7D
:406C40005303134881F800C0104D4FF0010EEFD1F446E4B204702A7085F800E03A0602D50E4B5B68B360337B4BB1094C0021074A084621700121013B10701170FBD1044B74
:406C800001221A706046BDE8F08700BF0C380A4208380A42C884FF1F62500040001000E028380A42914A2DE9F0435368904F914D4FF0010E002687F800E004462E7013B177
:406CC000013B002BFCD18B4853680125057013B1013B002BFCD15368854F864DE0B2002638702E7013B1013B002BFCD1814853680125057013B1013B002BFCD17C4E650899
:406D000053687C48EFB237700026067013B1013B002BFCD1774853680126067013B1013B002BFCD1A008724F5368724E0544C0B238700020307013B1013B002BFCD16D4835
:406D400053680126067013B1013B002BFCD1684BE008C7B21F70674E536800272544377013B1013B002BFCD1624E53680127377013B1013B002BFCD1284453685C4F5D4DD3
:406D8000C0B2002638702E7013B1013B002BFCD1584853680125057013B1013B002BFCD15368534E534D00203070287013B1013B002BFCD14F4853680125057013B1013BD6
:406DC000002BFCD153684A4E4A48012700253770057013B1013B002BFCD1464853680125057013B1013B002BFCD1434D107E2B7803F0F10343F002032B7088B14FF000077F
:406E00003C4D012653682F7013B1013B002BFCD153682E7013B1013B002BFCD10138F1D1344853680025057013B1013B002BFCD1324B304D187853680126C0B22E7013B1FB
:406E4000013B002BFCD12B4D536800262E7013B1013B002BFCD1294B264E1D7853680127EDB2377013B1013B002BFCD1214E536800276D00377013B1013B002BFCD11F4B8A
:406E80001C4F1E7853684FF0010EF6B287F800E013B1013B002BFCD145EA86031843012800F0828002282ED004282CD04FF00006117E104C213101255368267013B1013B52
:406EC000002BFCD15368257013B1013B002BFCD10139F1D1084A06491378012403F0F10343F00C0313700C700AE000BFC884FF1F08380A420C380A426250004028380A4210
:406F0000C0B2BDE8F083537EA3B1A30712D54FF00007884D2121012653682F7013B1013B002BFCD153682E7013B1013B002BFCD10139F1D1117E89B14FF000077D4D0126EE
:406F400053682F7013B1013B002BFCD153682E7013B1013B002BFCD10139F1D17649557E0B7803F0F10343F00C030B70B5B114F0020413D1714B6F4D26461C70212101248E
:406F800053682E7013B1013B002BFCD153682C7013B1013B002BFCD10139F1D1674B01221A70C0B2BDE8F08314F002074BD1157E75B1604E5368377013B1013B002BFCD162
:406FC0005368307013B1013B002BFCD1013DF1D10025A8465848DFF864C10378554E03F0F10343F00C030370096820204FF0010E5368CFB28CF8007086F8008013B1013BA8
:40700000002BFCD1536886F800E013B1013B002BFCD101380D444FEA5101E9D15368474E4449EDB23570087013B1013B002BFCD14049536801200870002B5BD0013B002B4D
:40704000FCD1012056E0002681463746B046DFF8E4E0DFF8ECC0202553688EF8008013B1013B002BFCD19CF800005368C0B28EF8009013B1013B002BFCD1C307013D06444F
:4070800043EA5707E8D12B485368057013B1013B002BFCD12A4B274D187853684FF0010EC0B285F800E013B1013B002BFCD1464016F0010F14BF0820012001B10F60117E40
:4070C00089B14FF000071B4D012653682F7013B1013B002BFCD153682E7013B1013B002BFCD10139F1D114490B7803F0F10343F00C030B70210602D5124B5B689360117BC1
:4071000099B100231E460D4D0A4C2B7001255368267013B1013B002BFCD15368257013B1013B002BFCD10139F1D1044B01221A70BDE8F0830C380A426250004008380A425E
:4071400028380A42001000E060B32DE9F041441E4FF00108002002468446C646124E134F134DD8B1013812F0010314BF87F800803B70736885F800C013B1013B002BFCD1BA
:40718000736885F800E013B1013B002BFCD1013C631C4FEA5202E4D1BDE8F0810A7807200131E0E7704700BFC884FF1F08380A420C380A422DE9F04110F03F0408BF402438
:4071C00003062ED54FF000082A482B4FDFF8ACC04FF0010E0825002687F80080436813B1013B002BFCD19CF8001087F800E04368C9B213B1013B002BFCD1CB01013D43EA72
:40720000560604F1FF3406D0002CE5D126FA05F51570BDE8F08102F8016B002CDAD1BDE8F0811448DFF858C0134D4FF0010E4FF0000711F8012BA4F10806D3B28CF80030BA
:407240002F70436813B1013B002BFCD185F800E0436813B1013B002BFCD1013CA6424FEA520203D0002CE8D1BDE8F081002CDED1BDE8F081C884FF1F0C380A4228380A42B5
:4072800008380A420128064B07D0022802D1054A1A607047044A1A607047044A1A6070475C81FF1FE53E0000A56C0000396A0000014B1B68184700BF5C81FF1FF0B40C48C4
:4072C0000C490D4F00230D4A03700B603B60012717700B4E0B4D0C4C0C480D490D4A33702B60236003700B701370F0BC704700BF1A85FF1F2085FF1F2495FF1F1885FF1FDB
:407300002896FF1F1085FF1F1485FF1F1B85FF1F1985FF1F1C85FF1F01282DE9F04103D000242046BDE8F081042BF9D1114D124B124FD5F800801E683C78B045E4B201D1F2
:40734000002CEED00E4B0F4933F82840104601EB8811224608F060F808F10103402B08BF0023B34204BF00223A7020462B60BDE8F08100BF1485FF1F1085FF1F2896FF1F6A
:407380002895FF1F2C96FF1F032826D12BB3117807291FD02DE9F0411049114F114E3C68D1F80080317801F0FF0509B144450FD00D48114600EB84101A4608F02DF8631C37
:4073C000402B08BF0023434508BF01253B603570BDE8F081054B01221A7070472495FF1F2085FF1F1A85FF1F2485FF1F0C85FF1F2DE9F04F224E234FDFF89C90D6F800B034
:40740000214D3C68DFF8948099F80000DFF890A02B6883B0D8F800209AF8001040BB934229D01A491A4801EB841100EB821001930092FFF781FA009A019B0132402A08BFA2
:4074400000229A4204BF00238AF80030631C402B08BF00235B450F49C8F8002004BF012289F8002041F824003B60C6F800B02B6003B0BDE8F08FC9B20029D2D1F8E700BF96
:407480001485FF1F1085FF1F2085FF1F2C96FF1F2485FF1F2895FF1F2896FF1F2495FF1F1A85FF1F2DE9F04F334B85B01B78002B5FD13249DFF8E0B00968DFF8E0A0304A93
:4074C000DFF8DC90DFF8DC802E4B2F4FDBF8004000919AF800101268D9F8005098F8006018783F78C0B20190F6B201F0FF00FFB211BBAA423AD0254925481FFA85FE01EB96
:40750000841100EB8E1003930292FFF715FA01352049402D029A08BF002541F824000134009B954208BF0026402C08BF0024E01AB0FA80F0039B4009CBF800408AF80000A2
:40754000C9F8005088F8006027B9019A5AB1009A944206D000221A7005B0BDE8F04F02F0F1BD0028F6D105B0BDE8F08F002EE3D0C1E702F07FFD9CE71B85FF1F1485FF1FB2
:407580002085FF1F1885FF1F1985FF1F2C96FF1F2485FF1F2895FF1F1085FF1F2896FF1F2495FF1F1A85FF1F30B5ADF5097D044606F022FAB8BBB4FA84F540A806F050FAC1
:4075C0001B4B1C480DF1FF326D0913F8011F834202F8011FF9D16A46FF2103208DF8D050A4F1010406F0B4FAB4FA84F4054606F02BFB114B0E4864090DF1FF3213F8011F6C
:40760000834202F8011FF9D16A46FE2103208DF8D04006F09DFA044606F016FB45EA04000DF5097D30BD002006F0D8FAC3E700BFFFFE0300FFFF0300FFFD03002DE9F04FEE
:4076400010F03F05264B08BF402510F0400418BF01241C7083B000F08003DFF88CE0DFF88CA0204FDFF8889001934FF001080026B44611F8014B0820DEF804305FFA84FBB8
:407680008AF800B087F800C013B1013B002BFCD199F800B0DEF804305FFA8BFB87F8008013B1013B002BFCD14FEACB13013843EA56064FEA540405F1FF350BD0002DDBD1F8
:4076C000019BC6401BB116700132002DCFD103B0BDE8F08F019B002BF5D1002DC7D1F6E708380A420C380A42C884FF1F04220A4220220A42F0B54F4C4F4863684F4A0125A9
:4077000000210570117013B1013B002BFCD14B4A63680121117013B1013B002BFCD1636845484649002202700A7013B1013B002BFCD1424A63680121117013B1013B002B2D
:40774000FCD13E4A63680021117013B1013B002BFCD13A4A63680121117013B1013B002BFCD1E27E8AB14FF000053449012063680D7013B1013B002BFCD16368087013B1A1
:40778000013B002BFCD1013AF1D1002086462B4D2B4F1F210126636885F800E013B1013B002BFCD13A786368D2B22E7013B1013B002BFCD140EAC27301394FEA5300EAD1BC
:4077C00063681D4D1D4A01262E70117013B1013B002BFCD11A4B194A197863680125C9B2157013B1013B002BFCD1144B6268002540EAC1701D7012B1013A002AFCD10F4BE8
:4078000062680121197012B1013A002AFCD16268094D0A4900232B700B7012B1013A002AFCD16268054B0121197012B1013A002AFCD1F0BDC884FF1F08380A420C380A4250
:4078400020220A42874AF0B55368874D8749012600242E700C7013B1013B002BFCD18349536801240C7013B1013B002BFCD153687D4D7E4C00212970217013B1013B002B63
:40788000FCD17A49536801240C7013B1013B002BFCD17649536800240C7013B1013B002BFCD17249536801240C7013B1013B002BFCD1D17E89B14FF000066C4C012553685C
:4078C000267013B1013B002BFCD15368257013B1013B002BFCD10139F1D15368644D634C00212970217013B1013B002BFCD15F49536801240C7013B1013B002BFCD15B49B8
:40790000536800240C7013B1013B002BFCD15749536801240C7013B1013B002BFCD15349536800240C7013B1013B002BFCD14F49536801240C7013B1013B002BFCD14FF0E6
:40794000000E4B4F494C1F2101265368C5B23D7084F800E013B1013B002BFCD15368267013B1013B002BFCD101394FEA5000ECD1957ED47E3B4B2C1B012C5B685DD03C4E8E
:407980003A4DC0B23070297013B1013B002BFCD1364953680120087013B1013B002BFCD1A11E11D04FF00005304801245368057013B1013B002BFCD15368047013B1013BFA
:4079C000002BFCD10139F1D15368274C2749012500202570087013B1013B002BFCD1234953680120087013B1013B002BFCD11F4953680020087013B1013B002BFCD11B49DB
:407A000053680120087013B1013B002BFCD15368154C164800212170017013B1013B002BFCD15368114A0121117013B1013B002BFCD10F4B01221A70F0BD0B4F0C4E0B4DF4
