:020000040000FA
:400000000080002011000000C9020000C902000008B5054B1A6803F53F5302331A6000F047FA00F059F900BFFA46004010B5054C237833B9044B13B10448AFF300800123BD
:40004000237010BD5081FF1F0000000070250000084B10B51BB108490848AFF300800848036803B910BD074B002BFBD0BDE81040184700BF000000005481FF1F70250000CE
:40008000C880FF1F0000000010B562B600F0B0FE10B1002000F070FF1C4B1B681868002320B110F8012D1344DBB2F9E7184A12681278D31A03F0FF039A4201D000F05CFF87
:4000C00000F0EEFDF0B90446012000F05FFF00F0E7FD18B90134652CF6D101E0642C11D101210C4800F05FF900210B4800F05BF900210A4800F057F9094B00221A70094BC1
:4001000040221A7000F06CFDFEE700BFD080FF1FD480FF1FD0FF0300D0FE0300D0FD0300CC80FF1FFA460040F8B572B6574B61221A704FF6FF12A3F5F0631A8018229A70F6
:4001400040F2E7329A801F229A71062283F88022522203F5C0731A704D4B4E4A1B784E4EDBB2137040F618024C4B19251A8041F25122002423F8022C33784FF4F07003F0DE
:40018000010343EA440401F07FF8013D04F003041CD0032CF0D1424B4FF480721A8007221A70404A002448211470917002221C705C7103F8032C3C4A3C4D1378062643F0FE
:4001C00003031370314B01221A7000E0FEE706FB045300219A881868013402F0BCF9082CF5D100221146324C04F1400554F8210005EB420320F0FF06C0B2024405EB4200C5
:40020000013303300233984206D013F8037C13F802EC07F806E0F5E701311029E6D1254A254C137843F002031370137C43F002031374224BA2F57E4259681868133A03C281
:40024000198953F80A0F11805968E83A03C21B89A2F6F652A2F8F63D137843F008031370174B02F5AA521B780C32DBB203F007011B0911705370134B44221A70A3F5A653AD
:40028000163B0FCB07C42380F8BD00BF004800400F010049A146004025420040224200400440004006400040A243004074250000A425000003500140B04300402C26000034
:4002C000CF0100497658004008B502F00DF903680C2B00D1FEE7FEE780B51148114B0025C0B1A3F1100192C922460439161BB74204D051F8046F42F8046BF7E7114653F8DD
:40030000046C8C1AA64202D041F8045BF9E701381033E5E702F0EEF8FFF7B6FEFEE700BF0100000040280000104A114B10B41A60104A114C1368114843F4007313600023DF
:40034000032B98BF54F823204FEA830188BF0C4A0133302B4250F3D10A4B1A780A4B1A700A4B064A10BC1A60FFF7DEBE0004FA050CED00E014ED00E0000000000080FF1F8C
:40038000C9020000BC760040C080FF1F08ED00E000470023014422B1013A885C0344DBB2F9E71846704770B5C0B06A4620F0FF035C1E03F1FF05D31A14F8016FAC421E55D0
:4003C000FAD1C3B2D45C8C4208D0D154C0F30721C0F3074000F0A0FD00F0F6FD40B070BD01380B284FD8DFE800F0060C12181E24302A363C42480902C1F57F3101F57071FA
:4004000047E00902C1F57F3101F2C13144E00902C1F57F3101F2C53136E00902C1F57F3101F2C93138E00902C1F57F3101F574712FE00902C1F57F3101F2D13129E0090260
:40044000C1F57F3101F2D6311EE00902C1F57F3101F2D23118E00902C1F57F3101F5757112E00902C1F57F3101F5767114E00902C1F57F3101F577710BE00902C1F57F3193
:4004800001F5787108E000210B78487843EA002070470878C0B270470B784A788878000440EA02201843CB7840EA03607047000038B51A4B1A781D4602F0C002802A2BD14C
:4004C000174B1C78E4B2012C15D900210520FFF787FF012104460520FFF782FF14F0FF0FC0B204D000280CBF0024032403E0002814BF0124022400232B7021460220FFF78F
:400500006FFF48B1012C07D821460220FFF768FFBDE83840FFF73CBF38BD00BFFA460040CC80FF1FF8B5014604460320FFF758FF214605460420FFF753FF012C064601D997
:400540000620F8BD21460620FFF74AFF012840D0214603200135FFF743FF06EB052600252F4601300002864209D910F8013B5A1ED2B2FD2A1D4498BF0127EDB2F3E72146E9
:400580000320FFF72DFF144B01309E424FEA00204FEAD00014BFF6084FF40046B04206D200F190431B7801301D44EDB2F6E721460120FFF715FF6D42EDB28542C0D1002F34
:4005C000BED02002C0F57F30012100F2D130FFF7EAFE0020F8BD00BFC0FF03002DE98048ADF5637D00F064FB62B600252E462F46DFF82484FF2301AA4FF496714CA800F04F
:4006000087FB0028F6D1BDF80420062A40F237829DF83031012B40F03282BDF83241E31D934200F22A82B3F5967F00F226824CAB23449B79172B40F02282231D9BB20DF249
:400640002F122BB1D15C013B084480B29BB2F8E74CAB1A1951791379404243EA012380B2834240F00E829DF831319DF83491A3F13102142A00F27981DFE812F040008B006A
:40068000B000C4000001050128013A01C4004A016A011500770177017701770177017701770177015100002E00F0E981012C40F0E681B9F1010F00F2A0814846FFF732FFED
:4006C0000446002840F099814FEA0929C9F57F390DF59A7E09F57079B9E80F00AEE80F00B9E80F00AEE80F00B9E80F00AEE80F0099E803008EE80300382191E1002E00F077
:40070000BE81002C40F0BB81BE4B1878FFF70AFFB0FA80F040098DF83401314680E1002E00F0AD81032C04D040F223139C4240F0A681032CBDF835A105D0E21E0DF2371193
:4007400097A801F0FDFEA9F140033F2B07D80AF1806303F500631A011021802309E0B9F1030F00F22C810AEB09234FF480711A020B469A4580F02581002097AB145C10F82B
:4007800003E0A64540F03381013084B2A142F5D819E1002E00F07381012C40F07081B9F1030F00F26C81974B5B681B68C3F30742914502D1C3F3072303E08CBF00234FF437
:4007C00080738DF834311B0A8DF835310024FF238DF836318DF83741042121E1002E00F04E81012C40F04B814846FFF79BFE49468DF834010520FFF7F3FD00248DF8350150
:4008000002210DE1342B12D1002E00F03881032C40F03581A9F140033F2B8CBF4FF4907510252A46002197A801F095FE05E0002E00F02581022C40F2228197AB033C224681
:4008400058190DF2371101F07BFEA9F140032C443F2BA4B204D800F067FB8023102203E04FF480734FF49072944240F0C280BDF835519D42C0F00C810126A2E0002E00F082
:40088000FE800025B6E6002E00F0F980012C40F0F6804846FFF746FE0446002840F0AD80B9F1010F0ED800F0A3FA10B1204600F063FB89F001015448FFF775FD49465348AD
:4008C000FFF771FD4F4B83F80090DEE0002E00F0D68004EB0509B9F5967F00F3CE8097AB581922464DA901F02BFE1FFA89F5CCE0002C40F0C480464A04AB92E803004DAAFB
:4009000083E8030082E8030025460126082187E0002E00F0B480032C40F0B180A9F140033F2BBDF835B108D800F0FEFABBF17F0F4FEA0B1140F2168143E04FEA092A0AEB52
:400940000B01BBF1FF0F4FEA012140F2168138E02C4B1878FFF7E6FD10B9802388F8003000F0B2F900F00AFB89E02A4A1268002A45D0002E52D0ADF80A404FF000094DACD3
:4009800004A98DF808300394CDF81090CDF81490069402A89047BDF81410B1F5937F02D3069BA34205D0069B03B929B99DF8104036E00E24494633E00E24194630E00924B0
:4009C0002DE00A242BE0B9F1030F5ED8A9425CD209F510390B440AEB092A03F12002C3EB4A1A1AF8030013F8011B88424BD0022415E0002501260324B2E00C240FE0052437
:400A000011460DE0CC80FF1FD0FF0300D0FE0300402600006C81FF1FFA4600400524002101238DF830310A1D0B0A8DF83331ADF806108DF831418DF8321192B200230DF21B
:400A40002F102AB1845C013A23449BB292B2F8E75B424DAA9BB253540DF235121B0A53540DF59B7317225A54073196230DF1060289B24CA800F02DF9BCE50324CFE70424F7
:400A8000CDE70824CBE79A42ABD100242146C7E7B9F13F0F4ED8DFF840A105EB092BDAF804301FFA8BFB1A68C2F30F2312F0FF0F1CBF01339BB29B454BD39AF80030012BB3
:400AC00015D9002F36D139464FF4907204A801F042FD9AF800104FF4907304AA00290CBFFE21FF21032000F0B1F9012722E03A4B1E78F6B2012E30D831460320FFF770FC8C
:400B000080B2421C92B2C2F57F730233C6F102019BB2C9B293FBF1F39345184480B201D383451AD9B9F1030FCBD1C6F1FF06B542C7D112E02346294697AA484600F086F96F
:400B400000280CBF00240A24002500F03DFA012606E0002501260A2402E0002501260D2429465DE710221D48FFF713FC044664428DF834410121002452E74FF480720020F1
:400B8000FFF707FCB9F13F0F0446F0D80AF1107ADA444FEA4A1A002313F80A0001330444202BE4B2F8D1B9F1030FE0D1ABF1FE03012BDCD8BBF1FF0B18BF4FF0010B594633
:400BC0000520FFF70DFC201AC4B259460620FFF707FC201AC4B2CAE7CC80FF1F008000402DE9F04100F004F910B1002000F0C4F90020FFF797FC06460120FFF793FC264C09
:400C000002230746002105202370FFF7E9FB012807D116B92670354604E017B920703D4600E006252378DFF87080022B0ED101210520FFF7D5FB012808D11FB988F8000007
:400C40003D4603E016B9354688F80060636800211A680846FFF79DFBA3681B78181A00F0FF00834203D10C4B5B681B6813B9002000F082F9094B1A7802F0C002402A1A46EA
:400C800000D01DB100231370FFF7A8FC80221A70BDE8F04100F072B9CC80FF1FFA460040024B1878C0F38000704700BF1151004008B562B60221002000F0DEFB014B0122D7
:400CC0001A7008BD7081FF1F00F014BC012000F0D5BC70B503EB83030E4615460146402202205C0000F08CFC022000F06DFC30B92CB10120013C00F049F9A4B2F4E7022029
:400D000000F062FC10B12E80002070BD102070BD2DE9F84303EB83035C00224B17461A78804689461E46A2B1254600F03BFC30B92DB10120013D00F029F9ADB2F5E700F08E
:400D400031FCA0B100F034FCFFF7C0FF002333700DE000F02DFC50B100F024FC38B1FFF7B5FF04E054B100F011F9013CA4B2012000F02AFC01284FF00100F3D100F024FCC6
:400D800001280AD14A46402A28BF4022414600F089FC38800020BDE8F88300233B801020BDE8F8837081FF1F38B500F07FF900F01DFAC0B900F054FA0728044610D10B4DF6
:400DC0002A780A4B910703D4012000F0F5F8F7E71A78920704D51B789B0814BF0724002400F024FA00E00424204638BD2247004070B5FFF7D9FF044610BB00F057F900F003
:400E0000F5F9E0B9012000F0D7F907280AD10D4D02210D4800F05CF902280A4E05D02B789B07F5D54FF0FF3406E033789A0703D4012000F0C1F8F8E700F0F8F900E00424B6
:400E4000204670BD224700407F81FF1F41282DE9F04105460E46174698460AD8441F3A2C8CBF002401243F2804D8B1F5807F30D806E00124812E28BF0124B8F1100F28D1D8
:400E80003FB334BB00F0B2F928BB43463A463146284600F03BF9072834D1DFF8748098F800201B4B12F0020F1F4603D1012000F083F8F4E71A78900706D51B789B080CD0E3
:400EC00002E01A78920719D44FF0FF3400F0AEF91AE0012418E0042416E00E4A314653782846127800F048F907280BD13A78084B9107E6D4012000F05FF8F7E71B789B0819
:400F0000E4D0E1E70446E1E72046BDE8F08100BF224700407F81FF1F3F288CBF10234FF48073FFF793BF000008B500F0B5F90F4A137843F008031370137C43F0080313746A
:400F40000B4BC8221A700B4A137843F010031370137C43F01003137402F5557213789B06FCD5BDE8084000F09BB900BFA043004001470040AC43004001BE7047024A1378D0
:400F800043F0010313707047F646004038B50446084DB4F5004F05D9286800F075F9A4F50044F6E7034B58686043BDE8384000F06BB900BFD880FF1F024B1B7A584300F0B6
:400FC00063B900BFD880FF1F08B500F065F900BF00BF00BF00BF00BF00BF00BF00BF00BF00BF00BF00BF00BF00BF00BF00BF064A13889BB243F0040313801388BFF36F8F55
:40100000BDE8084000F04CB900480040054A00F01F00126800F1100352F8230042F82310704700BF08ED00E000F01F0000F16040490100F56440C9B201707047134B144A63
:401040001B78DBB20360127843EA0223114A0360127843EA0243104A0360127843EA026303600E4B0E4A1B78DBB24360127843EA02230C4A4360127843EA02430A4A4360DF
:40108000127843EA02634360704700BF0301004904010049EC460040020100490101004900010049050100490601004908B500F0F3F8064A137843F008031370137C43F078
:4010C00008031374BDE8084000F0EAB8A04300402DE9F0410E464B1E0A4FDFF82C80451EC418A5420BD03B78DB0703D40120FFF763FFF8E798F8003005F8013FF1E73046CC
:40110000BDE8F081224700402047004070B5184D2C78A60727D5174CB6262670D5262670022626702D78AD071FD416462070B51AADB2AB4203D916F8015B2570F7E7B3F59A
:40114000807F01D0072070BD3F28FBD800F5103001EB0021490100235A5C0133D2B2202B2270F9D1EEE7042070BD092070BD00BF224700402047004070B50D4D2C78A607F2
:4011800012D50C4CB6262670D8262670052626702D78AD070AD42070080AC9B22070217022702370072070BD042070BD092070BD22470040204700400A4A137899070CD5E4
:4011C000094BB6211970E12119700E2119701278920704D4187007207047042070470920704700BF224700402047004038B500F053F80C4A147874B901250B4915700B6824
:401200002B400AD00B6823F001030B6000BF00BF00BF556002E0042400E01C4600F040F8204638BD7481FF1F0400084010B500F033F8094B00215A681970012A08D1074C5D
:40124000226842F00102226000BF00BF00BF5960BDE8104000F024B87481FF1F04000840074B1B789B0708D5064BB6221A70E0221A700D221A70072070470420704700BF43
:4012800022470040204700400230800803D000BF01380046FCD17047EFF3108072B6704780F31088704700BFF8B5FFF7F5FF3C4A01251378022743F001031370137C394CF8
:4012C00043F001031374384B02F5E3521D700B3203F8947C1378064603F07F0313700020FFF76AFE2378314A03F0F90323701378284603F0DF03137023782B432370FFF7E4
:401300005BFE2820FFF758FE294B38461A7802F07F021A701A7802F0BF021A7023783B432370FFF749FE2378304643F004032370204B00241C705C70FFF7B2FF07211720BC
:40134000FFF772FE1C491720FFF760FE07211820FFF76AFE19491820FFF758FE07211520FFF762FE16491520FFF750FE20460721FFF75AFE13492046FFF748FE2846072178
:40138000FFF752FE10492846FFF740FE07210C20FFF74AFEBDE8F8400C490C20FFF736BEA5430040944300409D60004012600040F8510040846000405B1B0000BD190000EB
:4013C000591B0000FD1A0000291B0000551D000008B51C4B01221A701B4B18701B48002303701B4803701B4803701B4803701B4803701B4803701B4803701B4B4FF4000047
:4014000018604FF0807018604FF4001018601A6002221A60154B19B91A7802F0FE0202E01A7842F001021A70114B03221A70802203F8202C0120FFF727FF0E4B04221A7087
:4014400008BD00BF1482FF1F9481FF1F9A81FF1F9881FF1F9981FF1F9581FF1F8481FF1F9781FF1F0C82FF1F00E100E009600040286000401260004070B5074C05462378DE
:401480000E461BB9FFF710FF0123237031462846BDE87040FFF79CBF7C81FF1F0C4B01221A700C4A002313700B4A13700B4A13700B4A13700B4A13700B4A13700B4A137092
:4014C0000B4B03221A70802203F8202C704700BF1482FF1F9A81FF1F9881FF1F9981FF1F9581FF1F8481FF1F9781FF1F0C82FF1F2860004008B5FFF7CFFE204A137803F0C3
:401500007F031370937A03F0FB039372A2F5E352033A137803F0FE031370137C03F0FE031374174B1A7842F080021A701A7842F040021A70FFF7B4FE124B4FF400021A6008
:401540004FF080721A604FF400121A6001221A6002221A6000F09AFF0B4B4FF480521A600A4A002313700A4A13700A4A13700A4A13700A4A13700A4A137008BD08600040AE
:40158000F851004080E100E080E200E09881FF1F9981FF1F9581FF1F8481FF1F9781FF1F7C81FF1F014B1878704700BF9981FF1F044B1A7802F0FF001AB118780022C0B2BD
:4015C0001A7070479881FF1F024A0C2303FB002040787047A081FF1F431E072B0CD8074A064B00010344805C5B7800F00F0043EA0020023880B2704700207047FC5F00403B
:40160000431E072BF0B531D8194B0C2505FB0035EC88184FA4B2C4F50074A2424FF00C0404FB003488BFEA88E67884BFC2F5007292B2104C46EA12260501EE552C44D6B20F
:40164000667041B90C2202FB0030002343704379DBB2A370F0BD0E46074F2F44751AADB2AA42EFD916F8015B3D72F7E7F0BD00BFA081FF1FFC5F004070600040431E072BC1
:401680000AD8064A0C2303FB002300225A705A79034BD2B200011A54704700BFA081FF1FFE5F004038B505461446D1B1431E072B19D8FFF791FFA04203D22846FFF78CFF92
:4016C00004460A4609482B011844531A9BB29C4203D9037A02F8013BF7E72846FFF7CEFF02E00C4600E00024204638BD7060004030B51A4A1A491B4D0878138803449BB2DB
:401700001380194A00231488D8B2A4B27CB1082B0CD050680078C0B2E85450680133013050601088013880B21080ECE718460B780E4C082B0E4A00D040B10E4D2B7883F0CF
:4017400080032B700F232370022301E0022323701370094B1870087030BD00BF1082FF1F0C82FF1F006000408881FF1F8581FF1F9A81FF1F9681FF1F0D82FF1F074B02226D
:401780001A70074B80221A70064B0F221A70064A00231370054A0120137070479A81FF1F9681FF1F8581FF1F0C82FF1F0D82FF1F30B5164B16491B780A8803F00F03023B7E
:4017C000DBB21A4492B20A80124C134A0020118889B279B173B15568215C013BC9B229705168DBB20131516011880130013989B21180ECE7094A1370094A137883F0800333
:401800001370084B0B221A7030BD00BF296000401082FF1F006000408881FF1F0D82FF1F9681FF1F8581FF1F064A06231370064A01201370054B80221A70054B00221A70C1
:40184000704700BF9A81FF1F8581FF1F9681FF1F0D82FF1F054B9A683AB19A68044910709A680988518000229A6070478881FF1F1082FF1F08B5124B1A78D2B21A701B784C
:40188000DBB21A0602D50F4A137008BD0220FFF7E1FF0D4B1B7803F06003202B05D0402B06D043B900F0B6FC04E000F0F7FD01E000F0E2FD10B9034B03221A7008BD00BF09
:4018C000286000408581FF1F0060004008B5084A084B0120197813880B449BB21380064B00221A70FFF7B6FF044B03221A7008BD1082FF1F0C82FF1F9A81FF1F8581FF1F5A
:4019000008B50C4B1B78DBB2042B07D0062B09D0022B0DD1BDE80840FFF7D8BFBDE80840FFF746BF0320FFF795FF034B03221A7008BD00BF9A81FF1F8581FF1F08B5054B5E
:40194000002201201A70FFF785FF034B03221A7008BD00BF9A81FF1F8581FF1F08B50A4B1A7832B11A78094942F080020A7000221A70074B002201201A70FFF76BFF054B2E
:4019800003221A7008BD00BF8481FF1F086000409A81FF1F8581FF1F074B1B78DBB2042B05D0062B05D0022B05D1FFF7A1BEFFF7C5BFFFF7D3BF70479A81FF1F38B51D4CB0
:4019C0002378DBB2DD0634D518060AD503F00F03012B2ED1FFF74EFF174B1B78190609D538BD5A0602D5FFF7D7FF03E09D0620D5FFF786FF23781B061BD4104B1A78104B90
:401A00001B7813430F4A13701278934211D10A4A0849154613782078DBB2000605D41378DBB20B700B7803F00F0328788342F1D138BD38BD286000408581FF1F9681FF1FC4
:401A40000D82FF1F29600040054A00231380054A916819B191680B7092685380704700BF1082FF1F8881FF1F0E4808B503889BB213B9FFF783FE13E00B4B02221A700B4BD0
:401A800000221A70FFF7E0FF094AD1799379028843EA012392B2934238BF0380FFF728FE012008BD8881FF1F9A81FF1F9681FF1F0060004008B50C4B04221A700B4B80229B
:401AC0001A70FFF7C1FF0A4A0120D179937943EA012308490A8892B2934238BF0B80064B0B221A7008BD00BF9A81FF1F9681FF1F006000408881FF1F8581FF1F084B0122B1
:401B00001A700F3B9B7C074B1A7B02F00302012A1EBFDA7B82F08002DA7301225A7370470B600040A081FF1F094B02221A700F3B93F82230074B1A7E02F00302012A1EBF9B
:401B4000DA7E82F08002DA7601225A76704700BF0B600040A081FF1F7047FFF79FBC000008B50B4B18780138C0B200F06BF9094B09491B79DBB200EBC3004269CB5C02EB98
:401B8000C3035B68054A596A0B781380516008BD9981FF1F006000408681FF1F8881FF1F08B50D4B18780138C0B200F04BF90B4B0B491B79DBB200EBC3004269CB5C02EB1E
:401BC000C3035B68DB69597813F8022B42EA012204490A804B6008BD9981FF1F006000408681FF1F8881FF1F38B5174C00232380164B18780138C0B200F024F9144AD378ED
:401C00001179DBB2F1B913490978CDB2591E022918D8416903F1005301EBC5014968013B927801EBC30011F83330D2B2934209D30C2353434168CA185068CB5A606023807B
:401C40009368A36038BD00BF8881FF1F9981FF1F006000408681FF1F10B5394B1A791978D2B211F0800F194632D05B78013B052B63D8DFE803F0101826626203CB78212BD4
:401C800002D1FFF76DFF08E02D4BDB78222B54D1FFF786FF01E0FFF7A7FF2A4B1B889BB2002B4AD009E0002A47D18B78002B44D1244B01221A80244A5A60BDE81040FFF77B
:401CC000D3BE002A39D11F4B01221A801F4AF3E75978C9B20A290DD00B2922D009292CD1FFF782FF174B1B889BB233B3BDE81040FFF7E0BE0ABB9A7802F0FF01EAB9DB780D
:401D0000114ADBB21370124B14781878844201D219700EE0197801290BD91278D2B21A7007E052B99A78012A07D89B78074ADBB21370BDE81040FFF777BD002010BD00BF2B
:401D4000006000408881FF1F1282FF1F1482FF1F1382FF1F00F09ABB70B50446184B88B003AA03F11006154618685968083303C5B3422A46F7D11B782B70FCB122232370FE
:401D800001AD032328466370FFF758F9002220461146AB5C08AC04EB131414F8144C03F00F03847008AC234413F8143C0132082AC1700371417100F10400EAD108B070BDEB
:401DC000482600002DE9F0411A4D01222E460C2080274FF0080E184B00FB025C14012344187016499CF805802144B8F1000F07D09CF8044024064CBF887081F802E000E09C
:401E00008F7000FB0261CC880132E4B29C71CC88092AC4F30724DC71CC88E4B21C71C988C1F307215971D6D1054BFF221A70BDE8F08100BFA081FF1F70600040FC5F004096
:401E40000A600040064B074A1B7802EBC30253681A7C824286BF03EBC0035869002070479481FF1F5C2600002DE9F84F424B1A78002A7ED01878414D0138C0B2FFF7E2FFE5
:401E8000A8463F4AC3681478007ADFF800C1E4B203EBC0000C2600274FF0010E834268D01A78A24263D11CF80420597891425ED19A7893F8039002F07F0206FB02FA05EBB5
:401EC0000A01CF7093F802B009F0030981F804B093F803B005F80AB0B3F804A0A1F808A093F902A0BAF1000F0BDAB9F1010F0CBF4FF007094FF00D0981F8059081F801E046
:401F000009E0B9F1010F0CBF4FF005094FF0090981F805904F704FEA02191A4906FB0282494481F802E0B2F808A0CAF3072A81F800A0B2F808A05FFA8AFA81F801A0B2F858
:401F400006A011495FFA8AFA494481F806A0B2F80690C9F3072981F80790B2F806905FFA89F981F80490D288C2F307224A71083394E7BDE8F88F00BF9981FF1FA081FF1F69
:401F80009581FF1FFC5F0040706000408681FF1F08B5064B18780138C0B2FFF753FF20B143681B7900EBC300406908BD9981FF1F00212DE9F84F0B464C4E0C2707FB01F594
:401FC00001317219092973554FF000049370474DD3701381937253705371EFD118B1444B1C70444B1C70444B1A78002A7BD0187801240138C0B2FFF725FFA0464368DFF8B6
:40200000F0E0DB790C2713F0400F3C4B4FF0000C1A7814BF42F0010202F0FE021A70027AD20007FB0451C36803EB02094B4531D093F802A00AF07F06A64229D10E89B3F8E5
:4020400004B0B6B25E4538BFA1F808B01E7893F801B01EF80660B3451AD181F804A0DE780E7093F902A0DE78BAF1000F06F0030607DA012E0CBF07260D264E7181F8018006
:4020800006E0012E0CBF052609264E7181F801C00833CBE70134092CC3D1C1680A328B1C0A440C200833934209D013F8081C13F80A4C01F07F0100FB01518C72F2E7FFF778
:4020C00067FF0F4B0122186000230C2000FB0251CB80098901320B44092A9BB2F6D1BDE8F84FFFF76FBEBDE8F88F00BFA081FF1F8681FF1F0E82FF1F9981FF1F9781FF1FC8
:402100009C81FF1F114B1B7903F07F035A1E072A19D80F490C2202FB031291781B0141F0010191700021D170517841F002015170127912F0800F074A1A4414BF8D2389235A
:402140009370FFF771BB0020704700BF00600040A081FF1FFC5F004030B4194B1A7902F07F02531E072B27D8164B0C2404FB02339978154D01F0FE0199700021D970294630
:402180001201505D114400F07F0050555A7802F0FD025A701A795B78120605D5012B01D18C7006E00D2303E0012B0CBF082309238B7030BCFFF738BB002030BC704700BF7E
:4021C00000600040A081FF1FFC5F004010B50D4B0D4C21791878C9B20138C0B2FFF732FE43681B798B4201D2012909D8074A0848535CDBB24354A3780120DBB2535410BDDE
:40220000002010BD9981FF1F006000408681FF1F0E82FF1F38B5874A874C13780021DBB221801806517840F188800A2900F20081DFE811F05800FE00FE00FE00FE00FE00BF
:402240000B00FE007900FE007D00D3787949012B09D17A4B1A787A4B03EBC2035B685B686360122310E0CB78022B12D18878FFF7E9FD002800F0DC80436863606368DA78E3
:4022800063689B7843EA02232380BDE83840FFF7EBBBCB78032B21D16A4B00228878D5B2854203D3634A92783AB910E0187801320028F7D018780344F0E75E4A62499278DD
:4022C000097C914203D16148FFF746FD5F4B1A78002A00F0AD801A78228018E0BDE8384000F0DCB813F0030313D0022B40F0A0802380504B0C211B7903F07F02544B01FB09
:4023000002339A78534BD2B21A7000225A706360BBE702222280504A11784E4AC9B2117053706260B1E7012323804C4BEFE70123238013794A4A1344E9E701390A2977D8C1
:40234000DFE801F037764F76067676760A7620009378444ADBB25AE0937803F0FF0153B93E4B1A7891425FD019703F4B01201870FFF71EFE58E0481EC0B2FFF763FD002848
:40238000EED155E0FFF722FF002851D0294A374913791279DBB2D2B20A70354A3049D25CCB5C9A4240D0304B01221A70FFF75CFD3AE003F00303012B2BD009D3022B37D139
:4023C0001C4B9B78002B33D1BDE83840FFF7C4BE184B9B78012B2BD11F4A137803F0FD0315E003F00303012B13D008D3022B1FD1104B9B78E3B9BDE83840FFF783BE0D4B6F
:402400009B78012B14D1144A137843F0020313700AE0084B1A795AB998781B791549DBB2CA5C22EA0002CA54BDE83840FFF7FCB9002038BD006000408881FF1F9481FF1F39
:402440005C2600002A270000F62700005B82FF1FA081FF1F7D81FF1F9781FF1F9981FF1F8681FF1F8481FF1F9881FF1F9581FF1F0E82FF1F9B81FF1F034B00201A781206F5
:4024800048BF5B78704700BF00600040024B1878C0F38010704700BF8F4500400F4A137803F00303012B0AD0022B0DD113790C2103F07F020A4B01FB02339B7A00E0137960
:4024C000DBB2012B08D800E00023064A1268D35C032B01D1FFF7C0BB0020704700600040A081FF1F9C81FF1F014B1868704700BF4881FF1F0E4B70B51E460E4C0025E41A5D
:40250000A410A54204D056F8253098470135F8E700F07CF9084B094C1E46E41AA4100025A54204D056F8253098470135F8E770BD18280000182800001828000020280000C6
:4025400010B5431E0A44914204D011F8014B03F8014FF8E710BD03460244934202D003F8011BFAE770470000002900005C00000000000000005100401000205100405000E8
:40258000C0510040100000000140001000140140000800400140000A004C014000020050014020000145004003520040011501400117014001190140011B0140034001403A
:4025C000024101400242014002430140034701400848014001490140044C0140024D0140015101407E0208100C047C40EC10EE0AEE0AEC1033803640CC30A640A780A6408D
:40260000A780A640A78008080F40C20C210225403D80AE40AF80C860CE20EE50B5025C01AC08AF40D601B401EC08000A4000000000000000C000040000141000100000000A
:402640006970122E003C01013031323334353637383941424344454600000000010000006426000001000000F62700000000000000000000010000007C2600000100000014
:40268000CD270000020000009E26000001000000B0260000000000009C260000030000000103400003000000820340000300000001000000B826000000000000EC260000C4
:4026C00000000000E0260000000000000000000001000000F826000001000000DF270000410000007D82FF1FBE82FF1F410000001A82FF1F1682FF1F2C000600FF0901A165
:40270000010902A10019032943150026FF0075089540910219442A8400150026FF00750895408102C0C000000203040309042C03430079007000720065007300730020005A
:40274000530065006D00690063006F006E0064007500630074006F0072002A0343006F006E00660069006700750072006100740069006F006E00200030007800300030004D
:4027800030003100220349006E007400650072006600610063006500200030007800300030003000310026034B0069007400500072006F006700200042006F006F007400DC
:4027C0006C006F006100640065007200000902290001010280FA090400000203000003092111010001222C0007050103400001070582034000011201000200000008B40418
:4028000046F100010104800143000000F8B500BFF8BC08BC9E4670475100000029030000F8B500BFF8BC08BC9E4670472D00000040280000C880FF1F880000007801000020
:402840000000000002000000682500006C2500000000007D00FA0000400000000090D00300000000000000000000000000000000000000000000000000000000000000001E
:4028800008280000000000000000000000000000000000000000000000000000000000000000000000000000000000000000000000000000000000000000000000000000E8
:4028C000E880FF1F00000000000000000000000000000000000000000000000000000000000000000000000000000000000000000000000000000000000000000000000052
:402900000000000000000000000000000000000000000000000000000000000000000000000000000000000000000000000000000000000000000000000000000000000097
:402940000000000000000000000000000000000000000000000000000000000000000000000000000000000000000000000000000000000000000000000000000000000057
:402980000000000000000000000000000000000000000000000000000000000000000000000000000000000000000000000000000000000000000000000000000000000017
:4029C00000000000000000000000000000000000000000000000000000000000000000000000000000000000000000000000000000000000000000000000000000000000D7
:40320000008000201132000049AA000049AA000008B507F021FC00BF10B5054C237833B9044B13B10448AFF300800123237010BD3882FF1F00000000E8F70000084B10B5C4
:403240001BB108490848AFF300800848036803B910BD074B002BFBD0BDE81040184700BF000000003C82FF1FE8F70000C880FF1F000000002DE9F04F85B062B60AF0B2FCB5
:4032800002F0F2F802F00AF8A0B902200AF034FC02200AF049FCA94A0220137803F0F103034313700AF038FA02200AF041FA02200AF026FA09F0C6FC0A200AF08BFEA04AD7
:4032C000A0481378A049DBB203705378DBB20B7006F00EF906F062F801F0E0FF002840F0178201F0E9FF08B106F04EF9974C002506F076F800F0A2FE257007F05DF8944A07
:40330000944B12689A4200F0F6810395924B934D1B78DBB22B702B78022B40F2E18100232B70DFF828B2DFF83CA2DFF83C92DFF83C820BF0A1FE00286DD008F07DFA002889
:40334000F7D00BF099FE002865D02B78834A002B00F058811678F6B2012E00F06C8102F057F80221002800F05581052008F0CEF802F0A8F80BF080FE00284CD008F07EF9FE
:403380000028F7D02B78022B02D0072008F028FA08F058FA0028FBD005F028F92E78F6B2012E7AD0012008F01BFA6C4B1B7803F0FF06002B40F04881012005F057F906F031
:4033C00057F82670667004F0D3F803F02DFC0BF053FE00B3002663780BB18BF8016004F0BBF92B78022B01D006F0C0FD06F01AF82378DFB208F048F9002840F0B980002F6E
:4034000040F0B68008F018FA002800F0B9800BF033FE0028DFD1002608E0013601200AF0B5FDB6F5FA6F28BF4FF4FA660BF024FE0028F2D040F26B73A6F165029A420ED840
:40344000B6F5FA6F00F0EA802B78444903F0FF02002B40F0D180039B002B40F025810AF099FC002800F0C18008F098F8C02008F0CDF914200AF08AFD002008F0C7F90BF0D9
:40348000FBFD0028FBD001F0C3FE00283FF451AF0BF0FAFD0028FBD04BE7022008F0A0F9052005F0E3F805F0E3FF00232370637004F05EF803F0B8FB0BF0DEFD0028AAD08D
:4034C0006378FBB904F0EEF8012008F0E9F80128074600F0D48006F049FD05F0A3FF2378DFB208F0D1F8002842D1002F40D108F0A3F9002844D00BF0BFFD00288BD063788F
:40350000002BDFD0002302208BF8013008F0D2F8C7B207F051F83A4602901149022008F01DF9029B184607F03DF83B4600960C4A0121032004F082F8C4E700BF1E50004042
:4035400008800040DC84FF1FDB84FF1F5482FF1F209801008F9E939B00800040CC80FF1F5882FF1F635000406250004064500040002005F07BF808F05FF900287FF4FAAE6A
:40358000002005F073F89AF8003003F0F10343F002038AF8003099F8003003F0F10343F0020389F8003098F8003003F0F10343F0020388F8003001F0FBFE68B15C495D4A89
:4035C0000B7803F0F10343F002030B70137803F0F10343F002031370002005F0B7FF0BF04BFD00283FF417AF3EE702462B781146184609F031FB37E70B78012B04BF0023B5
:403600000B702CE701F066FE80B30221032007F07DFFADE6084607F079FFA9E601F006FE00283FF41CAF2A78434B022A14BF022200221A7013E701F04DFE002843D002212E
:40364000042007F063FF93E6092005F00FF805F00FFF00232370637003F08AFF03F0E4FA0BF00AFD00283FF4D6AEB3E601F0D0FE02210028CFD0062007F048FF78E604234A
:403680002E4A014603F0A2FF00283FF424AF06F093FF402202902949384608F01FF8029B184606F07FFF16E71146104609F0D4FA012004F0D3F809F0CDFA14200AF08AFCDA
:4036C0000AF05CFCCBE601F0A3FE20B10221072007F01CFF4CE63046022107F017FF47E62B78022B7FF41DAE01F0A0FD00287FF418AE287015E6124AA3F1DB431268A3F553
:403700009733263BD31AB3FA83F35B090393FDE505F05EFE01F0D0FD00283FF4E2AD094A137803F0F10343F002031370D9E500BF0950004008500040CC80FF1F9882FF1FA9
:40374000249801001E50004009490A4A0B78002003F0F10343F002030B70107000BF00BF00BF0123137000BF00BF00BF704700BF625000400C380A424FF0000170B4104DA1
:40378000104E2B78012203F0F1030F4C43F00C032B7032702378104603F0F10343F00C030A4A23703C23117000BF00BF00BF107000BF00BF00BF013BF5D170BC704700BFA5
:4037C0006350004008380A42625000400C380A4230B4194B19490024194A08701C70107818490122184DC0B208701A701C702878C0B208701A701C702879C0B208701A706D
:403800001C70287AC0B208701A701C70287BC0B208701A701C70287CC0B208701A701C70287DC0B208701A701C70287EC0B208701A7030BC704700BF0C380A420001002041
:403840000020002208380A420420002238B5084A441E1378C51C03F0F10343F00C03137014F8010FFFF7B4FFAC42F9D138BD00BF625000400D4A00230D49137018460B7824
:40388000043203F0F10343F00C030B7014230121107000BF00BF00BF117000BF00BF00BF013BF5D1034B1878FFF792BF08380A4262500040D882FF1FF8B507460646324A7B
:4038C00001251378314C03F0F10343F00C03137017F8010BFFF77CFFFFF736FF2C4B00212C4A197092F800E01D70197010781D70197012781D7084F801E0A070E270FFF7B6
:4039000023FF3846FFF7A2FF7379002B38D0224B1D701F4B00221A7000BF00BF00BF0121197000BF00BF00BF73790BB11A4B1A70174B00221A7000BF00BF00BF012119706F
:4039400000BF00BF00BF1A7000BF00BF00BF197000BF00BF00BF1A7000BF00BF00BF197000BF00BF00BF60781A70084B38B1997821B9D878B0FA80F04009F8BD1046F8BDF4
:40398000054A1370C5E700BF62500040D882FF1F0C380A4228380A4208380A422DE9F04F83B0DFF88CB1047801914179431C8BF80040DFF880915B4D5B4E5C4F8BF8041097
:4039C00000930A2418E05A4B96F800E059790EF0F10E4EF0020E41F0070186F800E0597187F800A089F800A0013C14F0FF047BD001F00700072877D14FF000084FF0010AAE
:403A00008BF80580FFF736FFFFF79EFE89F8008095F800C089F800A089F8008095F800E089F800A089F8008029788BF801C08BF802E05FFA8EFC5FFA81FE4FEA8E0141EACA
:403A40004C0C9BF8011089F800A04CEA01014FFA81F88BF803E08BF80680FFF775FEB8F1020F48D0B8F1040F45D0D045ABD10098FFF7ECFE2E4B1879002851D087F8008059
:403A8000002189F8001000BF00BF00BF012089F8000000BF00BF00BF8C463970082189F800C000BF00BF00BF4FF0010E89F8000000BF00BF00BF0139F1D130789BF805C00E
:403AC0009BF8061000F0F1001A4B013C40F002004CEA010114F0FF0430708BF8051087F800E083F800E083D1019B41F02001197003B0BDE8F08F30789BF805E09BF80610CC
:403B000000F0F1004EEA010140F002004FF0010E30708BF8051087F800E089F800E063E73870ADE728380A426250004008380A42D882FF1F0C380A4208B5FFF71DFE9E20AE
:403B4000FFF746FEE720FFF743FEBDE80840FFF713BE00BF38B5094A094C137804F11B0503F0F10343F00C031370FF2001E014F8010FFFF72DFEAC42F9D138BD625000409D
:403B8000ECF7000008B50D4AFF20137803F0F10343F00C031370FFF71BFE7520FFF718FE7720FFF715FE7720FFF712FE6720FFF70FFEBDE80840FFF7CDBF00BF6250004021
:403BC0002DE9F04F6C4D002483B06C71FFF752FEFFF7BAFD69496A4B0C7001261A780E700C701F780E700C701878FCB2C0B283006A7043EA4403D2B213435BB25A1EAF706A
:403C0000E8700E70AB71032A00F2A580DFE802F019021902FFF798FD5A4869790378AA79594F564C03F0F1030A4343F002030121002603706A713970AE60217003B0BDE8C6
:403C4000F08F524E4FF0000037464E4C4B4B22784B4902F0F10242F00202DFF838A1DFF83891227006F10408019618700C78DFF82CE10122E4B28EF800401A7018700C786F
:403C8000434EE4B28AF800401A7018700C78DFF810C1E4B289F800401A7018700C78DFF804B1E4B234701A7018700C78DFF8F8E0E4B234711A7018700C78E4B234721A704E
:403CC00018700C78E4B28CF800401A7018700C78DFF8A8C0E4B28BF800401A709EF800E0002407F801EB4745DFF894E0BDD1019E8CF800409EF800708CF80020FFB2FFF708
:403D000023FD16F8013B002B33D0002203F001010A445B08D2B2F9D11444B045E4B2F0D104F00104A74203D06B7943F008036B71144869790378AA7903F0F103124E0F4C00
:403D400043F002030A43012103706A713170217003B0BDE8F08FFFF7F7FC0A486A790378094E03F0F103054C43F0020342F00702E9E71A46D0E700BFD882FF1F0C380A42FC
:403D800028380A426250004008380A42E082FF1F0C200022042000220820002200200022182000221C2000220001002004281CD8DFE800F0080D111603000D4B04221A733F
:403DC000012070470A4B00221A7301207047084B012018737047064B02221A7301207047034B03221A73012070470020704700BFD882FF1F114B1A78824211D010B4104AE8
:403E0000104C117868B901F0FB011170217801F0FB012170117801F0F701117010BC1870704741F004011170217841F004012170117841F008011170F0E700BFD080FF1F9A
:403E4000C6510040C751004038B5334B984222D8324A33494300B1FBF3F1B2FBF3F003FB01F203FB00F3C2F17472C3F1B77302F5104203F558539A423DD904463BBB38BB8F
:403E800005460BF019FC01284FF0520429D00BF063FB012008E03C2401250BF00DFC042824D00BF059FB04200BF0DAFB284601210BF062FB0BF040FB1A4B1B4A197B5C6069
:403EC00001FB0444A2FB0424A4099C6038BD0134601E522385B203FB04F40BF0EDFB0128D5D1014628460BF047FBE5E7284601210BF042FBE0E71AB941B90D461E24CCE7B2
:403F00004C1CC4EB041464008DB2C6E74D1E1E24ADB204FB01F4C0E70024F40000366E010090D003D080FF1FD34D6210B8B1402810D841000C4A0139C9B210730B4B0C4809
:403F40001970117B536801FB0333A0FB03139B0993607047044A402313737F21EEE7024A01211173EAE700BFD080FF1F86640040D34D62101D4A38B500F00F0313441A7FA2
:403F80001B4B1C4C1A70237883070D461AD507200BF0CCFA23461A78002AFCD0164B1B682B60164B00201C780BF0C0FA144BC4F302149868B0F5803F0FD280B20AF00AF891
:403FC000204638BD0F4B0A6805201A600BF0AEFA23461A78002AFCD0E3E70B4BA3FB0030800909F0D3FF204638BD00BFECF7000041640040656400405A6400405164004047
:40400000D080FF1F4A640040D34D6210094B0A4A198B01290CBF01210021517306D0587808B903F089BA012003F086BA022003F083BA00BFE084FF1FD080FF1F38B52C4CF3
:404040002C4B21780022212058711A709A719A6071B1294B2948197801F0FB011970017801F0FB010170197801F0F701197022700BF062FA224A23491368234843F003337D
:4040800013600B68027B214843F0030310250B6005702AB1402A25D9402323737F2302E00122134622731A49164A0B701378002043F02003137091F8133143F0200381F8B7
:4040C0001331D37943F02003D3710B7E43F020030B76537943F0200353710BF027FA0D4B1B7838BD5300013B2273DBB2DBE700BFD080FF1FD882FF1FC6510040C75100408D
:404100009A64004091640040E084FF1F2164004086640040656400400006030C70B4DA11C3F3002102EBD3320A44C3F340210A44C3F3802183B00A44C3F3C021019002AD43
:404140000A44C3F300360D4C40F0F001164455F8040DC3F3403201913244C4F8230002EB9333286803F00103C4F8290084F8273084F82D3003B070BC704700BFD080FF1F36
:4041800010B5234C00230328A4F8703011D8022812D220B3012821D141B301292CD101F099F800282FD00423A4F87030194A138010BD052809D00ED2164A4FF448714FF4ED
:4041C000C8731180A4F8703010BD124A02231380A4F8703010BDFE28F6D3EDE710BD29B1012909D101F076F80028DCD1094A0223A4F87030138010BD02221346A4F870206E
:40420000044A138010BDF023A4F87030CEE700BFD080FF1FDE84FF1F70B5164C4FF4C8702678237806F00E0603F0F10343F00C0323702378104D03F0FE03237009F0CAFEDE
:40424000237843F00103237009F0ECFC044600E03BB909F0E7FC201A2B7880B24F28DBB2F6D9044A0120137803F0F1031E43167070BD00BF6450004030380A4210B10128D6
:4042800002D07047FFF7C8BF10B5044601F0A0F800B910BD002008F0BDFC642009F076FE204608F0B7FCBDE81040642009F092BE2DE9F04FFE2889B004460F46914600F02B
:4042C000B580012918BF002600F05287032C00F0F6825AD9052C00F0AC82C0F02281FE2C00F08A81FF2C40F0BE80BA4D2B7B002B00F0ED83032B00F04084042B00F0428470
:40430000012B40F0E483B44CB44B63670BF0F8F980463846FFF7B2FF09F084FCA527814601E0012E13D0636F98472F70FFF748FC6E7909F077FCB4F87030C0EB090080B20C
:40434000834206F00F06ECD8012E40F0EB82FFF713FAA5232B70FFF733FC6B799D4A03F00F03012B00F0E884FFF706FAA5232B70FFF726FC6B7903F00F03012B40F09D8225
:4043800006A99748FFF70AFB97E2012C00F0DE826ED8904D2B7B002B00F0B583032B00F0FE83042B00F0F783012B00F0AC838A4C8C4B63670BF0A4F980463846FFF75EFF39
:4043C00009F030FCA527814601E0012E13D0636F98472F70FFF7F4FB6E7909F023FCB4F87030C0EB090080B2834206F00F06ECD8012E40F09782DFF8F4917B4C012009F162
:40440000040706AE00EB400004EB40003146FFF7C5FA9DF8183003F00703012B40F04182B94500F08C8319F8010FEBE7507895789928D1781679537900F0EF810026012F5E
:4044400040F0DA8000F046FF002800F0D580002008F0E0FB642009F099FD01F027F8B0F57A7F7FF633AF0024204609B0BDE8F08F584D2B7B002B00F02E83032B00F0718375
:40448000042B00F07283012B40F02583524C534B63670BF035F980463846FFF7EFFE09F0C1FBA527814601E0012E13D0636F98472F70FFF785FB6E7909F0B4FBB4F87030B2
:4044C000C0EB090080B2834206F00F06ECD8012E40F02882FFF750F9A5232B70FFF770FB6B7903F00F03012B7FF43EAFDFF800913D4C022009F1040706AE00EB400004EBDB
:4045000040003146FFF74AFA9DF8183003F00703012B7FF429AF4F4500F0C58319F8010FEBE72C4D2B7B002B00F0E582032B00F02E83042B00F01D83012B40F0DC82264C1F
:40454000264B63670BF0DCF880463846FFF796FE09F068FBA527814601E0012E13D0636F98472F70FFF72CFB6E7909F05BFBB4F87030C0EB090080B2834206F00F06ECD818
:40458000012E40F0CF81FFF7F7F8A5232B70FFF717FB6B7903F00F03012B7FF4E5AEDFF85490114C022009F1040706AE00EB400004EB40003146FFF7F1F99DF8183003F06D
:4045C0000703012B7FF4D0AE4F4500F06C8319F8010FEBE7D882FF1FD080FF1F793700003A81FF1F393B0000E080FF1F44F8000018F8000028F80000CE4D2B7B002B00F085
:404600007E82032B00F0D782042B00F0A682012B40F07582C84CC94B63670BF071F802903846FFF72BFE09F0FDFA99F800308046039399F801300193002E40F08B82019B7A
:4046400003F00407FFB2002E00F0B581002F00F0B7819DF804304FF0010B2B70FFF7B0FA6B7903F00F03CBEB030ABAFA8AFA4FEA5A1A09F0D7FAB4F87020C0EB080080B215
:40468000824240F24482BAF1000FDCD00BF1010B19F80B80002E00F02483039B012B40F2238301960127039EA2E0BBF1370F00F296820BF1010309EB0300427819F80330FA
:4046C000C1781204847842EA03630B4343EA0424230C5FFA83FA5FFA84FC0AF0010202EBE4310CF001020A4402EBE412C4F3072002EBD33200F0010102EBD3120A44C4F394
:4047000040210A44C4F380210A44C4F3C0211144C4F300321144C4F340321144C4F380321144C4F340021144C4F380021144C4F3C0021144C4F300121144C4F340124FEAB3
:40474000132E0A44C4F3801111440EF001021144C3F340221144C3F380221144C3F3C0221144C3F300321144C3F340321144C3F380321144C3F340021144C3F3800211445F
:40478000C3F3C0021144C3F300120A44C3F340110A4402EB931319F80B2003F001038DF81A0006A88DF81D308DF81BA08DF819C08DF81CE08DF81820FFF77EF8034628B172
:4047C000019A1AB1B8F1BB0F00F078820BF1050B5FFA8BFB0137FFB219F80B80002B00F0FE81BE4200F08082BBF13C0F00F0F78118F0040F3FF459AF85F80080FFF7E0F979
:404800006B790BF1010B03F00F03A3F10103B3FA83F35FFA8BFB5B09DCE7090441EA05610B43474943EA06235E1AB6FA86F6760905E6404D2B7B002B00F05581032B00F0A4
:40484000C281042B00F0BB81012B40F04C813A4C3A4B63670AF054FF80463846FFF70EFD636F984709F0DEF9074600E06EB93548FFF722F8064609F0D5F9B4F87030381AF7
:4048800080B28342F2D8002E4CD006AE31462E48FFF784F89DF8183003F00703012B00F04381FEF769FFA5232B70FFF789F96B7903F00F03012B00F08D82002433E01D4D33
:4048C0002B7B002B00F01381032B00F08081042B00F06981012B40F00A81174C174B63670AF00EFF80463846FFF7C8FC09F09AF9A527814602E0012E00F0F881636F984776
:404900002F70FFF75DF96E7909F08CF9B4F87030C0EB090080B2834206F00F06EBD8012E00F0E481022440460AF0EEFE204609B0BDE8F08FD882FF1FD080FF1F7937000073
:40494000DB060C7BE080FF1F0A81FF1FAB4D2B7B002B00F0C480032B00F03D81042B00F02681012B00F0BB80A54CA64B63670AF0C7FE06463846FFF781FC636F984709F060
:4049800051F9804602E0002F40F0A4819E48FEF793FF074609F046F9B4F87030C0EB080080B28342EFD80224002F40F0938130460AF0AAFE58E5636F9847002F7FF449AE9A
:4049C00099F8031099F8022099F80530090441EA026299F804101A4342EA01231A0C5FFA82FED8B20EF0010C00F001010CEBE33C8C440CEBE31CC3F307210CEBD23C01F076
:404A0000010B0CEBD21CDC44C3F3402BDC44C3F3802BDC44C3F3C02BDC44C3F3003BE344C3F3403CE344C3F3803CE344C3F3400CE344C3F3800CE344C3F3C00CE344C3F3E7
:404A4000001CE344C3F3401CDC44C3F3801363444FEA122C0CF0010B5B44C2F3402B5B44C2F3802B5B44C2F3C02B5B44C2F3003B9B44C2F340339B44C2F380339B44C2F3E4
:404A800040039B44C2F380039B44C2F3C0039B44C2F300139B44C2F340135B4403EB921299F8013002F001028DF8190006A88DF81BE08DF81A108DF81CC08DF81D208DF8AC
:404AC0001830FEF7F9FE4FF0050B8246D1E54C4C4C4B63671AE44A4C4A4B6367D9E4484C4A4B636743E7464C464B6367B2E6444C444B6367F4E6424C424B636722E5404C2F
:404B0000404B636789E53E4C404B636752E40BF1010B19F80B800224BAF1000F7FF4BAAD02980AF0F1FD9FE431463948FEF736FF9DF8183003F00703012B7FF4B2AEBD235F
:404B40002B70FFF73DF86C7904F00F04012C7FF4A8AEE8E6636F984771E5294C2D4B63675BE5274C2C4B636793E4254C294B63678FE4234C274B6367E4E4214C264B636759
:404B8000FFF7C4BB1E4C234B6367FFF7BFBB1C4C214B6367D6E41A4C1E4B63670AE4184C1D4B636706E4164C1A4B636798E6144C184B6367DBE6124C174B63672DE5104CBA
:404BC000144B636746E60E4C134B636742E60C4C114B636784E60A4C0F4B6367C7E6FEF7CBFDA5232B70FEF7EBFF6B7903F00F03012B00F01181002492E700BFD882FF1F3D
:404C0000D080FF1F393B0000E080FF1F793700002E81FF1F853B0000553B0000EF89DFF8A4B2002F00F0FD80BE2F00F08B8240F2118140F205139F4200F02D81B7F5837FE1
:404C4000C0F01F81B7F5877FC0F07E8240F20F139F4200F08082B7F5887F40F00C810423914F31461F4497F84800DFF8489200EB400004EB4000FEF791FE9DF8183003F0D4
:404C80000703012B7FF470AB97F85030062000FB03903146FEF782FE9DF8183003F00703012B7FF461ABBD232B70FEF789FF6C7904F00F04012C7FF457AB34E67B4A9442C1
:404CC0007FF484AD0390012009F060F9FEF734FF039B7BE57648FEF7EFFD002849D1002465E6FEF749FDD8E4012419E7FEF744FDA5232B70FEF764FF6B7903F00F03012B72
:404D00007FF432ABDFF8C4916A4C022009F1040706AE00EB400004EB40003146FEF73EFE9DF8183003F00703012B7FF41DAB4F45B9D019F8010FECE7DFF894A1D2F80890A4
:404D40005C4C0AF10207022006AE00EB400004EB40003146FEF722FE9DF8183003F00703012B7FF401AB57453FF458AF1AF8010FEBE75148FEF7A0FD002849D04F4B0021B5
:404D8000197000BF00BF00BF01221A7000BF00BF00BF197000BF00BF00BF1A7000BF00BF00BF197000BF00BF00BF1A7000BF00BF00BFA0B9FEF7E0FCA5232B70FEF700FFA8
:404DC0006B7903F00F03012B89D106A93C48FEF7E5FD84E731463A48FEF7E0FD6DE5104609F0D4F8FEF7A8FEA5232B70FEF7E8FE6B79344C03F00F03012BDBD1BD2323700A
:404E0000FEF7DEFE647904F00F04012CD2D1CEE52948FEF751FDB1E706A92948FEF7BEFDE9E6B7238BF80030FEF7CAFEFEF7C8FE9BF8053003F00F03012B7FF495AADBF8CC
:404E4000083003F00302032A44D0EF89002F3FF48BAAE9E6A32F00F0758140F26C81AC2F40F28081B52F00F06D81B82F00F06A81AE2F00F06781144B99457FF475AA0123D2
:404E8000EEE640F201139F4200F06581B7F5817F03D340F060810223E2E6C22F00F05281B7F5807FF7D0E6E7ECF70000A9307EEA1681FF1FE080FF1F2E81FF1F0C380A42FA
:404EC0003A81FF1FD882FF1F7714A02B20F8000030F800003146AB4823F47F6AFEF75EFD9DF818302AF00F0A03F00703012BACD13146A548FEF752FD9DF8183003F00703D9
:404F0000012BA2D10AF57E610B0CD8B200F0010202EBE132063202EBE11202EBD33202EBD312C1F3003CC1F3403E9444F444C1F380324FEA132E94440EF001029444C3F30B
:404F400040229444C3F380229444C3F3C0229444C3F300329444C3F340329444C3F380329444C3F340029444C3F380029444C3F3C0029444C3F300129444C3F340126244D9
:404F800002EB93130A1203F001038DF81B008DF81A204FF08B0CE0220DF1170130468DF81D308DF81CE08DF818C08DF81920FEF7F5FC9DF8173003F00703012B7FF4D4A93F
:404FC000019626461C4659464FF09F0B029185F800B0FEF7F5FD6A79029902F00F02012A02D03446019E30E704F10052023A012C4FEAC20206D0087A052C00FA02F247EA1A
:40500000020701D00134E1E70AF57D6A4FEA1A43D8B200F0010202EBEA32063202EBEA1202EBD33202EBD312CAF3003ECAF3403196448E44CAF3803296441A0A02F001017C
:405040008E44C3F340218E44C3F380218E44C3F3C0218E44C3F300318E44C3F340318E44C3F380318E44C3F340018E44C3F380018E44C3F3C0018E44C3F300118E44C3F38E
:40508000401171443446019E01EB93134FEA2A2A03F001034FF08B0C8DF81B004FF0D00E0DF1170130468DF81AA08DF81C208DF81D308DF818C08DF819E0FEF76FFC9DF8FA
:4050C00017A00AF0070ABAF1010F7FF4BEAE4FF0000B2E499F2201E00AF1010A02912A700192FEF76DFD6B79284803F00F03012B019A02997FF4A9AE0AF10053023BBAF111
:40510000010F4FEAC303E7D091F808E0BAF1050F0EFA03F34BEA030BDED107F47F23B3F5342F7FF492AEBBF1000F7FF48EAEC7F30B07C78189E69E2F04D00ED8923F042FB6
:405140003FF699AE00238BE5B7F5857F03D8B7F5847F3FF690AE032382E5A03F012F3FF68AAEEFE7A92FEDD2A72F7FF484AEE9E700F0B0F810B90646FFF7A8B80026FFF793
:4051800066B900BFF280FF1F0481FF1FD882FF1F034B044A1B7803EBC30312F813007047E882FF1F88FB0000064B5A783AB91B78054A03EBC30302EB43035878704700201E
:4051C000704700BFE882FF1F88FB0000014B01225A707047E882FF1F044B054A1B7803EBC30302EB43039878704700BFE882FF1F88FB0000044B054A1B7803EBC30302EB3B
:405200004303187B704700BFE882FF1F88FB0000044B054A1B7803EBC30302EB4303D878704700BFE882FF1F88FB0000044B054A1B7803EBC30302EB43031879704700BF0C
:40524000E882FF1F88FB0000044B054A1B7803EBC30302EB43035879704700BFE882FF1F88FB0000044B054A1B7803EBC30302EB43039879704700BFE882FF1F88FB00000F
:40528000044B054A1B7803EBC30302EB4303D879704700BFE882FF1F88FB0000044B054A1B7803EBC30302EB4303187A704700BFE882FF1F88FB0000044B054A1B7803EBBA
:4052C000C30302EB4303587A704700BFE882FF1F88FB0000044B054A1B7803EBC30302EB4303987A704700BFE882FF1F88FB0000084B1A782AB1187810F1FF3018BF01203F
:405300007047054B054A1B7803EBC30302EB430358797047DC84FF1FE882FF1F88FB0000084B1A782AB1187810F1FF3018BF01207047054B054A1B7803EBC30302EB430344
:4053400058797047DB84FF1FE882FF1F88FB0000054B064A1B7803EBC30302EB4303987B00F00700704700BFE882FF1F88FB0000054B064A1B7803EBC30302EB4303D87B0B
:4053800000F03000704700BFE882FF1F88FB0000054B064A1B7803EBC30302EB4303587BC0F34000704700BFE882FF1F88FB0000054B064A1B7803EBC30302EB4303587BFE
:4053C00000F00100704700BFE882FF1F88FB0000044B054A1B7803EBC30302EB4303D87A704700BFE882FF1F88FB0000064B9A783AB91B78054A03EBC30302EB4303187C9D
:4054000070470020704700BFE882FF1F88FB0000044B054A1B7803EBC30302EB4303587C704700BFE882FF1F88FB0000014B01229A707047E882FF1F014B1878704700BF9D
:40544000E882FF1F014B187C704700BF4881FF1F014B587C704700BF4881FF1F014B588A80B270474881FF1F08B509F037FEC043044A00F01F0313700020BDE8084009F015
:405480000BBE00BFE882FF1F38B505460C462820002108F01BF8284608F0A4F8204608F0A1F8BDE8384008F081B800BF08B507F0FDFD20EAE07000EB4000401007F0E4FD7D
:4054C00080B208BD10B509F011FE002009F01CFE07F08EFD07F0EAFD4FF47A7303FB00F313F5007048BF03F2FF50801207F0C6FD184C012009F008FEC82008F047FD2378E2
:4055000083B107F051FEFFF771FF00B910BD0021282007F0DBFFC0B107F05AFEBDE81040FFF784BFFFF7C2FFB0F5E16F0AD8FFF7D1FE20B9084A137843F0010313700123F6
:405540002370DEE7FFF742FEF9E7BDE8104008F02DB800BFEC82FF1F17500040F8B54E4B05465880FFF7B6FE002800F0908080210220FFF789FFFFF799FF0021064628203A
:4055800007F0A4FF002008F02DF80121282007F0D9FF002008F052F8044608F007F8B54234BF771BAF1BBFB2B54244D9FF2C01D00134E4B221460020FFF766FF012008F0AB
:4055C000E5FCFFF773FF85424ED2431BB5429BB241D99F420CD2B5428CBF04F1FF340134E4B200202146FFF74FFF012008F0CEFCFFF75CFF854234BF401B281A002186B21C
:405600000220FFF741FF21460020FFF73DFF1E2008F0BCFC00210220FFF736FF08F03CF808F054F841F294139D422AD8592E8CBF00200120F8BD0CB1013CE4B221460020F3
:40564000FFF722FF012008F0A1FCFFF72FFF854214D32B1A9BB28542BBD8B4FA84F25209002AB6D11F469FE72B1AB5429BB2F2D9A4F1FF02B2FA82F25209F1E7431B9BB29C
:40568000E9E7B6F5FA7F2CBF00200120F8BD012007F0C0FA6BE700BFEC82FF1F014B5888704700BFEC82FF1F2DE9F04F02788DB082F080051F2D28D90A70057881460C4618
:4056C00001F1010B1D2D00F2A182DFE815F01F02E801DA01AB01E100BE006D029F02AE0086017F019F029F029F029F029F020401F1008D02930133027A0070009F029F02ED
:405700009F029F029F029F02250003F061FA054628460DB0BDE8F08F0020FEF76BFBFFF737FE8046002800F0CB820022627004F1020A99F8014009F10207002C00F0BD82E2
:40574000012635464646A846DFF8B0933878013C10F03F0318BF073307F1010714BF4FEAD30B4FF0080B002E00F0558220F07F0202F0FF030093002A00F0518299F80020CC
:40578000394602F0F10242F0020289F80020524601F06AFE002C00F04F820135DA44D844002CD3D148EA054505F10115B0E7C04A1178022900F0D083FF2363704FF0021525
:4057C000A6E7FFF7F5FD002800F0848299F80120DFF8DCA209F102078AF81A20E2B10AF11B0006460AF1220507EB020E002117F8013BBE4506F8013F25F8021F1944F6D128
:4058000002F11906AB4B0AEB460610F8015F491B23F8021FB342F8D100236370551C2D0445F0010505F1011572E7A14D2A78012A00F05583022A04D1FFF7BAFD002840F098
:405840006884FF2363709C4D62E7DFF864A2431C06939AF80030012B099300F09082022B40F0A282FFF7A4FD002840F03E8699F8022009F1030732B914E2DB0606D40137F5
:40588000013A00F00F823B789907F6D40537F7E74178874A08461173B9F80210864D1182B9F804305382FEF741FB002363702FE7D0F80100002800F05082804B984240F2EF
:4058C00024837B4B01225A705A60FEF7BDFA002363707B4D1CE786784578D0F80390FFF767FD80460020FEF785FA16F0010106D015F0010300F05183724B01221A7006F052
:40590000020303F0FF074BB105F0020303F0FF02002B00F045836C4B01221A7006F0040303F0FF0C2BB1B8F1000F02D0674BAA081A7026F07F0303F0FF0B6BB1644AEB0996
:40594000137800F0208343F001031370137803F0F10343F002031370B9F1000F21D05D4B06F0200258681E46AB0803936B09D2B20293EB09019313466246A446DFF85CA177
:40598000DFF854E14FEA55090093002900F064819EF800309D4200F05F8173689842F4D064464D494D4A4E4B097812781B784D4D9B004D4843EA42022B780A43017842EAE7
:4059C000C30343EAC1136370484DA1E6FEF724FC0023A0706370464D9AE6B0F80120162303FB02F313B1013B002BFCD100236370404D8DE6FF224A70FFF7CAFC002800F031
:405A00005C8199F801302A4903F003020132C3F380034B760A76FEF7F9FA002363704FF0021575E6224B344A002119701378334903F0F10343F0020313700B7803F0F10378
:405A400043F002030B70537803F0F10343F002035370FFF7ADFC68B129492A4A0B7803F0F10343F002030B70137803F0F10343F002031370002003F069FD00236370224D00
:405A800046E64678002E40F02A81FFF781FC002840F05283002565704FF0021538E64378002BA4D0012BA1D0FF234B70114D2FE6E084FF1F1285FF1F020006007F841E003E
:405AC000020005000C380A4208380A4204220A4264500040001000E02C380A4228380A4224220A4220220A4230380A42020007000300010002000300635000406250004006
:405B00000950004008500040020001004378F02B00F0618240F20D82FE2B00F05582FF2B40F04C820023CB70402202238A70C04D6370EDE5FFF73CFC0546002800F0C58048
:405B40000022627004F1020A99F8014009F10207002C00F0B2800126B34605E003EB080B4744013C00F0998097F800900BF1010319F03F0808F1070807F1010714BF4FEAB3
:405B8000D8084FF00808002DE8D052463946484601F0AEFE0BF1010B19F0800FC34447441CBFC2444644DCE7DFF894A29AF80060012E00F00881022E04D1FFF7F9FB002871
:405BC00040F01C8200226270A270E270032299F80410890700F1C580B9F80250013542EA854505F1011593E54678871C002E40F0BD80904D4FF480760020FEF7FBF83946A3
:405C0000304601F0FBFB0023637081E5FF230B704FF001157CE503061AD50135C0E599F80020394602F0F10242F00C0289F80020524601F019FC5CB999F8002002F0F10246
:405C400042F00C0289F80020009B002B7FF4A5AD01355D445F44A3E527B19AF8003099457FF49BAE42B1B8F1000F05D0724B039C1B789C427FF491AE009B1BB1029B002B54
:405C80007FF48BAEBBF1000F3FF48AAE6B4B019C1B789C427FF481AE82E646EA0B4505F1011535E5069BFD1A2D04002345F0020505F101156370A3702AE54FF0021527E5F3
:405CC000FF22627004F1020A33E5FF22627004F1020A39E7FF2199F8012061709EE5012E3FF4D3AE022E7FF4D5AEFFF761FB00283FF4D0AE524A53485349544F167001230A
:405D0000534A3B7003700B701378524843F0010313700378504903F0F10343F00C0303700B7803F0F10343F00C030B70137803F0F10343F00C03137010F8593C03F0F103BC
:405D400043F00C0300F8593C11F85B3C03F0F10343F0020301F85B3C9DE6FF234B703F4DD6E442F4802202F10115D1E4F51DED0801352D0445F0010505F101153CE7FFF7FB
:405D800007FB002840F0038299F8022009F103072AB987E7DD0605D40137013A82D03B789E07F7D40537F8E78278C71C32B979E7DD0606D40137013A3FF474AF3B789E0737
:405DC000F6D40537F7E7FFF7E3FA00283FF4FAAE234A244D1078FEF70DF8B9F80230211D1A46009300232B700191002A00F0268599F804201046049202F0020202F0FF01D7
:405E0000002A40F0678509F10503CDF80C900494D1460E461C4682460BAFCDF808B054F8043BB9F810800B934FF0000B25E000BF040002000200220024220A4230380A426D
:405E4000E084FF1F0C380A4204220A4208380A4264500040625000406350004002000500DD80FF1F2485FF1FD84500F09C802B780BF1010B002B40F096803946504601F0A5
:405E800071FB0228F0D0012840F08D80009B0136B342C4D1CA46DDF808B00096049CDDF80C90BAF810704FF0000805E0B84509D02B7808F101082BB900210E2001F052FB3C
:405EC0000228F3D00646009BDAB2C3F3072A019B627084F802A0E670CBEB030277E6FFF757FA00283FF4ADACBF4BD9F802200CAD45F8042D1878FDF77DFF2946002001F0C2
:405F000031FB00236370B94D02E4B94BDFF808A30344B3FBF0F30022102B8AF801206BD0A2F155320E3BA2FB03235B08CAF80430CBE4042B42D1AF4B8A1C1B78AE4D012BF0
:405F40000CBFAE4BAE4B186899880623C4F8020091806370FFF7DCBB4378917ED37699427FF62AAC0E2001F0DFFE01F01DFD0023050A010C020EE570A0702171627163703F
:405F8000A04DFFF7C5BB03F0FE031370137803F0F10343F00C031370DEE49B4A1370AEE49A4B1A70BAE43346DDF808B00646DDF80C90049CDAB2C3F3072A88E700234FF060
:405FC00002156370FFF7A4BB40238B700123904D6370FFF79DBBFFF7DBF90646FFF7E8F9002818BF022546F0100635430123A5706370874DFFF78CBB012397E799F801209A
:406000009AF81A10834D0027231D91422F708AF81B20019340F25684B9F802300093002B00F00C8499F8043013F0010F0CBF0A220B2210460793069201F076FE079901F003
:40604000020202F0FF030391002A00F0EF840296BAF810803E4627460C4607E0B04500F051852A780136002A40F04C850021204601F0C4FF0228F1D00128029E3C4640F0A3
:406080006885009B0494013B059300231C46CDF808B0DDF804B007960BAF039ECDF80C90059B9C4200F06885BAF810804FF0000908E0C84500F0DE832B7809F10109002B0B
:4060C00040F0D8833946304601F098FF0228F0D0012840F07C850B9B0BF1040B190A1A0C0BF8043C0BF8031C0BF8022C1B0E0BF8013C009B0134A342D2D1CDF804B0DDF8B5
:406100000C90DDF808B0049C0646DAB24FEA132ADDE699F80120A97EEA7691427FF691AB082001F001FED9F8020001F0E5FC002363702E4DFFF7ECBA374D3349334B01205F
:40614000364A28700870187013783549034313700B78344D03F0F10343F00C030B702B7803F0F10343F00C032B701378054603F0F10343F00203137011F8593C03F0F10329
:4061800043F0020301F8593C03F0E0F983E4164A204D107800262E70FDF72CFE99F80230E21C019309F103070792002B00F0DF84314608960496059602943E787B1C03937C
:4061C00006F0020303F0FF09002B00F0C980059B002B49D006F01103012BBAF810804FF000092AD1A7E000BFDD80FF1F02000600FF47E801CC80FF1F080002004CF80000F6
:4062000054F80000060002000C380A4208380A42030002002485FF1FE084FF1F645000406250004063500040C84500F04F812B7809F10109002B40F049810BA90E2001F05B
:4062400091F90228F0D0014600230593012940F0A984079C0B9B180A1A0C23701B0EE370231D6070A270079306F0100303F0FF02002B00F0C880D7F80130BAF8129000937E
:406280007B1DF707039317D5B34B4FF000081F8A08E0474500F021812B7808F10108002B40F020810021304601F05CF90228F0D00128014640F017814FF00008BAF81040E9
:4062C000002705E0BC4240D02B780137002B3CD10BA9304601F046F902280146F2D0012833D1DAF814200B9B1340009A9A4200F0A182C14504D02B7808F10108002BDDD0D8
:40630000029C40F01001C9B2019B039A05E0C70606D40132013B00F0A78210788607F6D40532F7E7C84500F0A1822B7809F10109002B40F09B820BA9304601F013F9022832
:40634000F0D001230146059380E7DAF814200B9B029C1340009A9342D3D1019B039ADCE7059B03B3BAF8108008E0C84500F0A9802B7809F10109002B40F0A3800BA90E209A
:4063800001F0F0F80228F0D00128014640F09A80079C0B9B190A1A0C23701B0EE370231D6170A2700793D7F8012006F020030B92053703F0FF09002B66D00023CAF81420AB
:4063C00005930121049A2B7801320492002B40F02983019B013B01937FF4EFAE029C0397012900F0E782039B069AA1709D1A079BCBEB030343EA05459DF8103005F10115DF
:406400006370FFF785B916F00108BAF8107022D0059B002B40F00982984606E0B8455CD02B7808F10108002B5CD10021304601F099F80228F2D00128014640F0B3830023B4
:40644000039F08930590BDE7474546D02B7808F10108002B46D10BA9304601F083F80228F2D00128014640F09D83079E0B9B039F180A1A0C33701B0EF37000230893331D69
:406480007070B27007939DE7BAF8108005E0C14510D02B7809F1010963B90BA9304601F061F80228F3D00128014604D100230890059387E7014600230593029C3A46019BC9
:4064C0002BE701460123029C059346E70023029C05930221019B039A1FE7019B0146039A029C1AE70146029C37E799F801109AF81A001A4D0022E31C88422A708AF81B10F8
:40650000079340F2808299F8023009F103070193002B00F03A8313460492089202943E787A1C16F0010F03920CBF0A220B22B407059240F1A0800899002900F01F819A4247
:40654000BAF8108000F0A4810A2B02D00A2001F0EBFB4FF000090CE0E084FF1F2485FF1FC84500F053812B7809F10109002B40F04D810BA90E2001F041FD0228F0D001465C
:40658000002308930A23012940F02783079C0B9A2146100A6070100C2270A070120EF00601F10401E27040F13A810791D7F8012005980092984207F105020392BAF81290D1
:4065C00001D001F0B1FBBAF810704FF0000808E0474500F03D812B7808F10108002B40F032810021304601F009FD0228F0D00128014640F0E8824FF00008BAF810400027ED
:4066000004E0BC422CD02B7801374BBB0BA9304601F0F4FC02280146F3D0012820D1DAF814200B9B1340009A9A4200F05081C14504D02B7808F10108002BDED0029C40F0E6
:406640001001C9B2019B039A05E0C00606D40132013B00F0DE8110788607F6D40532F7E7DAF814200B9B029C1340009A9A42E6D1019B039AEFE7089A42B30A2B02D00A207D
:4066800001F052FBBAF810804FF0000908E0C84500F0B7802B7809F10109002B40F0B1800BA90E2001F0AAFC0228F0D00128014640F0A8800B9A079C110A22706170110CB5
:4066C000120EE270221D0A23A1700792D7F80120B10607F105070B926FD5CAF814200022089204992A7801310491002A40F01382019A013A01927FF412AF029C03970A2BD5
:4067000002D00A2001F010FB089B002B00F00C82BAF810604FF000080BAF08E0B04500F000822B7808F10108002B40F0FA8139460E2001F063FC0228F0D0012840F0048262
:40674000079E0B9A9DF81030150A110C3270120EF270321D09907570B1700792039A06996370551A079A9DF82430CBEB020242EA054505F10115A370FEF7CABFF2063FF512
:4067800015AF0598984201D001F0CEFABAF81080002705E0474560D02B780137002B5CD10021304601F02AFC0228F3D00128014654D1059B039F089093E70598984201D00B
:4067C00001F0B2FABAF810804FF0000905E0C14510D02B7809F1010963B90BA9304601F00DFC0228F3D00128014604D10022059B089276E7014600230893029C3A46019B16
:4068000029E701460A23029C059331E700230893029C0A2305930221019B039A1BE7089A0791002AADD0039F5BE70123039F08920593C7E50023039F0893C3E5009EB24600
:406840003246FFF744BB0146029C019B039A02E7019B039A0146029CFDE6014600230893029C019B039AF6E60392B9E50123029C05932EE62346CDF804B0079EDDF808B036
:40688000DDF80C90049CDAB2C3F3072AFFF71FBB06F0100202F0FF09002A7FF455AE08E0C84500F036812B7809F10109002B40F030810BA9304601F0A1FB0228F0D00146AB
:4068C000059B60E63E46BA463A46FFF700BB059B039F06E70499C80719D502962746BAF810801E460C4607E0464500F031812A780136002A40F02C810021204600F032FEDC
:406900000228F1D00128029E3C4640F02281009BCDF80CB0013B029300239B46DDF81080CDF81090DDF804900BAF06960594029B5B4500F03181BAF81060002404E0B4423C
:406940002AD02B7801343BBB3946404600F00AFE0228F4D001281FD10B9B09F10409190A1A0C09F8043C09F8031C09F8022C1B0E09F8013C009B0BF1010B5B45D7D1CDF8AE
:406980000490DDF80CB0069EDDF81090059CDAB24FEA132AFFF79BBA5B46CDF80490DDF80CB0DDF81090059C0646DAB2C3F3072AFFF78DBA059B002B00F08F80BAF8106022
:4069C0004FF000080BAF08E0464500F099802B7808F10108002B40F0938039460E2000F0C1FD0228F0D0012801467FF4FCAC079E0B9B180A1A0C33701B0EF370331D707045
:406A0000B2700793EFE409F10201134609920391A4E60129039200F0A880CAB29DF8103009929BE6029C3A46019B76E409F10502059604941E461446CDF80C90D146DDF821
:406A40001CA00BAFCDF808B054F8043BB9F810800B934FF0000B05E0D84532D02B780BF1010B73BB3946504601F0C8FA0228F3D0012840F09C80009B0136B342E4D1069B4B
:406A800000960A2BCA46DDF808B0059E049CDDF80C9002D00A2001F047F9BAF810704FF0000806E0B8455AD02B7808F10108002B55D100210E2001F0A1FA0228F2D0FFF754
:406AC00001BA3346DDF808B0059EDDF80C90049CDAB2C3F3072AFFF7FAB9089B002B3FF482AC059FBAF8106004E0B74208D02B7801372BB900210E2000F034FD0228F4D03E
:406B0000014670E44FF0000A029E3C465246FFF7DEB9029C7FE60593029C3A460121019B99E59DF8103019E6089FBAF8106005E0B742F6D02B780137002BF2D100210E20DC
:406B400001F05CFA0228F3D09DF81030099005E63C464FF0000A06465246FFF7B8B9009BDAB2C3F3072AFFF7B2B9059BC7E5019B03970493194636E4069B0A2B09D00A2098
:406B800001F0D2F80E26FFF78FBA019B03970993E4E50E26FFF788BA18F0010F18BF4FF00E08C8E6019B039A029CFFF7B6BB3346DDF808B0DDF80C90049C0646DAB2C3F3CB
:406BC000072AFFF784B9019B039A029C43E5CDF804B02346DDF808B0ECE70593029C019B039A38E5F8B503787F2B03D0BDE8F840FEF75ABD0E46044606F8023B457802340A
:406C00004D7075B14FF0021731462046FEF74CFD013D83B2074404EB10441E44F4D13846F8BD4FF00210F8BD38B5264C0025102108226423616022732382257065706582EB
:406C40006561FEF7A5FB10B1012365762376FEF7AFFB08B10023A376FDF7D8F91A481B4903781B4A03F0F10343F0020303700B78184803F0F10343F002030B701378164968
:406C800003F0F103012443F00203137004700C70137823431370FEF78BFB88B10F49104A0B78104803F0F10343F002030B7013780D4903F0F10343F00203137004700C705B
:406CC00038BD00BFE084FF1F63500040625000406450004008380A420C380A42095000400850004004220A4200220A422DE9F047074686084FEA500E0EEB0600904B914AE4
:406D00005FFA86F83844FE08012400255FFA8EFE30445FFA87FC1470F6B21D70C0B21C7082F800C01D701C7082F800E0DFF81CE21D701C7082F800801D701C7016701D7003
:406D40001C7010701D701C7015701D701C7014701D701C709EF800007B4E00F0F100327E40F002008EF800001AB1013A1D701C70FBD1734B0024DFF8DC811C70012298F8CB
:406D800000E01A701C7098F800001A701C7098F800501A70AD0045EA400040EA0E0090424FD0022818D0042816D01146327E2132013A1C704FF001051970F9D1634A614954
:406DC00013785FFA80FC03F0F10343F00C0313700D706046BDE8F087737E53B1BB0708D54FF00004564A21230121013B14701170FBD1337E3BB14FF00004514A0121013B85
:406E000014701170FBD1514A717E137803F0F10343F00C03137061B117F0020709D13C46484B474A1F7001212123013B14701170FBD1444B01225FFA80FC1A706046BDE8C0
:406E4000F08717F0020536D08246A646A146202583F8009098F80020013DD2B24FEAC27C14444CEA5E0E364883F800A0DFF8E4C04FF00102ECD105709CF8003002705C405F
:406E800014F0010F14BF4FF0080C944609B1C1F800E0337E3BB14FF00000294A0121013B10701170FBD1294A137803F0F10343F00C0313702CE0327E2C461AB1013A1C7087
:406EC0001870FBD10024A146204ADFF8788013784FF0010C03F0F10343F00C0313700B6817492022D8B2013A88F800001C4481F800904FEA5303134881F800C0104D4FF0F5
:406F0000010EEFD1F446E4B204702A7085F800E03A0602D50E4B5B68B360337B4BB1094C0021074A084621700121013B10701170FBD1044B01221A706046BDE8F08700BF09
:406F40000C380A4208380A42E084FF1F62500040001000E028380A42914A2DE9F0435368904F914D4FF0010E002687F800E004462E7013B1013B002BFCD18B4853680125E2
:406F8000057013B1013B002BFCD15368854F864DE0B2002638702E7013B1013B002BFCD1814853680125057013B1013B002BFCD17C4E650853687C48EFB23770002606705B
:406FC00013B1013B002BFCD1774853680126067013B1013B002BFCD1A008724F5368724E0544C0B238700020307013B1013B002BFCD16D4853680126067013B1013B002B53
:40700000FCD1684BE008C7B21F70674E536800272544377013B1013B002BFCD1624E53680127377013B1013B002BFCD1284453685C4F5D4DC0B2002638702E7013B1013BB5
:40704000002BFCD1584853680125057013B1013B002BFCD15368534E534D00203070287013B1013B002BFCD14F4853680125057013B1013B002BFCD153684A4E4A480127EC
:4070800000253770057013B1013B002BFCD1464853680125057013B1013B002BFCD1434D107E2B7803F0F10343F002032B7088B14FF000073C4D012653682F7013B1013BB7
:4070C000002BFCD153682E7013B1013B002BFCD10138F1D1344853680025057013B1013B002BFCD1324B304D187853680126C0B22E7013B1013B002BFCD12B4D53680026B6
:407100002E7013B1013B002BFCD1294B264E1D7853680127EDB2377013B1013B002BFCD1214E536800276D00377013B1013B002BFCD11F4B1C4F1E7853684FF0010EF6B2A2
:4071400087F800E013B1013B002BFCD145EA86031843012800F0828002282ED004282CD04FF00006117E104C213101255368267013B1013B002BFCD15368257013B1013BF9
:40718000002BFCD10139F1D1084A06491378012403F0F10343F00C0313700C700AE000BFE084FF1F08380A420C380A426250004028380A42C0B2BDE8F083537EA3B1A30724
:4071C00012D54FF00007884D2121012653682F7013B1013B002BFCD153682E7013B1013B002BFCD10139F1D1117E89B14FF000077D4D012653682F7013B1013B002BFCD133
:4072000053682E7013B1013B002BFCD10139F1D17649557E0B7803F0F10343F00C030B70B5B114F0020413D1714B6F4D26461C702121012453682E7013B1013B002BFCD1CC
:4072400053682C7013B1013B002BFCD10139F1D1674B01221A70C0B2BDE8F08314F002074BD1157E75B1604E5368377013B1013B002BFCD15368307013B1013B002BFCD19D
:40728000013DF1D10025A8465848DFF864C10378554E03F0F10343F00C030370096820204FF0010E5368CFB28CF8007086F8008013B1013B002BFCD1536886F800E013B163
:4072C000013B002BFCD101380D444FEA5101E9D15368474E4449EDB23570087013B1013B002BFCD14049536801200870002B5BD0013B002BFCD1012056E0002681463746D2
:40730000B046DFF8E4E0DFF8ECC0202553688EF8008013B1013B002BFCD19CF800005368C0B28EF8009013B1013B002BFCD1C307013D064443EA5707E8D12B485368057033
:4073400013B1013B002BFCD12A4B274D187853684FF0010EC0B285F800E013B1013B002BFCD1464016F0010F14BF0820012001B10F60117E89B14FF000071B4D012653689A
:407380002F7013B1013B002BFCD153682E7013B1013B002BFCD10139F1D114490B7803F0F10343F00C030B70210602D5124B5B689360117B99B100231E460D4D0A4C2B70AC
:4073C00001255368267013B1013B002BFCD15368257013B1013B002BFCD10139F1D1044B01221A70BDE8F0830C380A426250004008380A4228380A42001000E060B32DE9F3
:40740000F041441E4FF00108002002468446C646124E134F134DD8B1013812F0010314BF87F800803B70736885F800C013B1013B002BFCD1736885F800E013B1013B002B59
:40744000FCD1013C631C4FEA5202E4D1BDE8F0810A7807200131E0E7704700BFE084FF1F08380A420C380A422DE9F04110F03F0408BF402403062ED54FF000082A482B4F81
:40748000DFF8ACC04FF0010E0825002687F80080436813B1013B002BFCD19CF8001087F800E04368C9B213B1013B002BFCD1CB01013D43EA560604F1FF3406D0002CE5D1B2
:4074C00026FA05F51570BDE8F08102F8016B002CDAD1BDE8F0811448DFF858C0134D4FF0010E4FF0000711F8012BA4F10806D3B28CF800302F70436813B1013B002BFCD1F2
:4075000085F800E0436813B1013B002BFCD1013CA6424FEA520203D0002CE8D1BDE8F081002CDED1BDE8F081E084FF1F0C380A4228380A4208380A420128064B07D0022815
:4075400002D1054A1A607047044A1A607047044A1A6070475C81FF1F753F0000596F0000ED6C0000014B1B68184700BF5C81FF1FF0B40C480C490D4F00230D4A03700B6001
:407580003B60012717700B4E0B4D0C4C0C480D490D4A33702B60236003700B701370F0BC704700BF3285FF1F3885FF1F3C95FF1F3085FF1F4096FF1F2885FF1F2C85FF1F33
:4075C0003385FF1F3185FF1F3485FF1F01282DE9F04103D000242046BDE8F081042BF9D1114D124B124FD5F800801E683C78B045E4B201D1002CEED00E4B0F4933F8284000
:40760000104601EB8811224608F0DAF808F10103402B08BF0023B34204BF00223A7020462B60BDE8F08100BF2C85FF1F2885FF1F4096FF1F4095FF1F4496FF1F032826D106
:407640002BB3117807291FD02DE9F0411049114F114E3C68D1F80080317801F0FF0509B144450FD00D48114600EB84101A4608F0A7F8631C402B08BF0023434508BF01250D
:407680003B603570BDE8F081054B01221A7070473C95FF1F3885FF1F3285FF1F3C85FF1F2485FF1F2DE9F04F224E234FDFF89C90D6F800B0214D3C68DFF8948099F8000035
:4076C000DFF890A02B6883B0D8F800209AF8001040BB934229D01A491A4801EB841100EB821001930092FFF77DFA009A019B0132402A08BF00229A4204BF00238AF80030DC
:40770000631C402B08BF00235B450F49C8F8002004BF012289F8002041F824003B60C6F800B02B6003B0BDE8F08FC9B20029D2D1F8E700BF2C85FF1F2885FF1F3885FF1FF4
:407740004496FF1F3C85FF1F4095FF1F4096FF1F3C95FF1F3285FF1F2DE9F04F334B85B01B78002B5FD13249DFF8E0B00968DFF8E0A0304ADFF8DC90DFF8DC802E4B2F4F00
:40778000DBF8004000919AF800101268D9F8005098F8006018783F78C0B20190F6B201F0FF00FFB211BBAA423AD0254925481FFA85FE01EB841100EB8E1003930292FFF702
:4077C00011FA01352049402D029A08BF002541F824000134009B954208BF0026402C08BF0024E01AB0FA80F0039B4009CBF800408AF80000C9F8005088F8006027B9019AB6
:407800005AB1009A944206D000221A7005B0BDE8F04F02F065BE0028F6D105B0BDE8F08F002EE3D0C1E702F0F3FD9CE73385FF1F2C85FF1F3885FF1F3085FF1F3185FF1FC0
:407840004496FF1F3C85FF1F4095FF1F2885FF1F4096FF1F3C95FF1F3285FF1F30B5ADF5097D044606F096FAB8BBB4FA84F540A806F0C4FA1B4B1C480DF1FF326D0913F82E
:40788000011F834202F8011FF9D16A46FF2103208DF8D050A4F1010406F028FBB4FA84F4054606F09FFB114B0E4864090DF1FF3213F8011F834202F8011FF9D16A46FE21C2
:4078C00003208DF8D04006F011FB044606F08AFB45EA04000DF5097D30BD002006F04CFBC3E700BFFFFE0300FFFF0300FFFD03002DE9F04F10F03F05264B08BF402510F065
:40790000400418BF01241C7083B000F08003DFF88CE0DFF88CA0204FDFF8889001934FF001080026B44611F8014B0820DEF804305FFA84FB8AF800B087F800C013B1013B65
:40794000002BFCD199F800B0DEF804305FFA8BFB87F8008013B1013B002BFCD14FEACB13013843EA56064FEA540405F1FF350BD0002DDBD1019BC6401BB116700132002D52
:40798000CFD103B0BDE8F08F019B002BF5D1002DC7D1F6E708380A420C380A42E084FF1F04220A4220220A42F0B54F4C4F4863684F4A012500210570117013B1013B002BE0
:4079C000FCD14B4A63680121117013B1013B002BFCD1636845484649002202700A7013B1013B002BFCD1424A63680121117013B1013B002BFCD13E4A63680021117013B127
:407A0000013B002BFCD13A4A63680121117013B1013B002BFCD1E27E8AB14FF000053449012063680D7013B1013B002BFCD16368087013B1013B002BFCD1013AF1D1002013
